{
  "contractName": "PrestamosFactory",
  "abi": [
    {
      "inputs": [],
      "stateMutability": "nonpayable",
      "type": "constructor"
    },
    {
      "anonymous": false,
      "inputs": [
        {
          "indexed": false,
          "internalType": "address",
          "name": "direccion",
          "type": "address"
        },
        {
          "indexed": false,
          "internalType": "uint256",
          "name": "cantidad",
          "type": "uint256"
        }
      ],
      "name": "FondosRecibidos",
      "type": "event"
    },
    {
      "anonymous": false,
      "inputs": [
        {
          "indexed": true,
          "internalType": "address",
          "name": "direccionContrato",
          "type": "address"
        },
        {
          "indexed": true,
          "internalType": "address",
          "name": "prestatario",
          "type": "address"
        }
      ],
      "name": "NuevoPrestamoCursando",
      "type": "event"
    },
    {
      "anonymous": false,
      "inputs": [
        {
          "components": [
            {
              "internalType": "uint256",
              "name": "index",
              "type": "uint256"
            },
            {
              "internalType": "uint256",
              "name": "porcentajeInteres",
              "type": "uint256"
            },
            {
              "internalType": "uint256",
              "name": "cantidad",
              "type": "uint256"
            },
            {
              "internalType": "uint256",
              "name": "deudaTotal",
              "type": "uint256"
            },
            {
              "internalType": "uint256",
              "name": "cuotas",
              "type": "uint256"
            },
            {
              "internalType": "uint256",
              "name": "penalizacionImpago",
              "type": "uint256"
            }
          ],
          "indexed": false,
          "internalType": "struct PrestamosFactory.TipoContrato",
          "name": "tipoContrato",
          "type": "tuple"
        }
      ],
      "name": "PrestamoDefinido",
      "type": "event"
    },
    {
      "stateMutability": "payable",
      "type": "receive"
    },
    {
      "inputs": [],
      "name": "invertir",
      "outputs": [],
      "stateMutability": "payable",
      "type": "function"
    },
    {
      "inputs": [],
      "name": "getBalance",
      "outputs": [
        {
          "internalType": "uint256",
          "name": "",
          "type": "uint256"
        }
      ],
      "stateMutability": "view",
      "type": "function"
    },
    {
      "inputs": [],
      "name": "getClientes",
      "outputs": [
        {
          "internalType": "address[]",
          "name": "",
          "type": "address[]"
        }
      ],
      "stateMutability": "view",
      "type": "function"
    },
    {
      "inputs": [
        {
          "internalType": "uint256",
          "name": "amount",
          "type": "uint256"
        }
      ],
      "name": "recolectarFondos",
      "outputs": [],
      "stateMutability": "nonpayable",
      "type": "function"
    },
    {
      "inputs": [],
      "name": "verTiposContrato",
      "outputs": [
        {
          "components": [
            {
              "internalType": "uint256",
              "name": "index",
              "type": "uint256"
            },
            {
              "internalType": "uint256",
              "name": "porcentajeInteres",
              "type": "uint256"
            },
            {
              "internalType": "uint256",
              "name": "cantidad",
              "type": "uint256"
            },
            {
              "internalType": "uint256",
              "name": "deudaTotal",
              "type": "uint256"
            },
            {
              "internalType": "uint256",
              "name": "cuotas",
              "type": "uint256"
            },
            {
              "internalType": "uint256",
              "name": "penalizacionImpago",
              "type": "uint256"
            }
          ],
          "internalType": "struct PrestamosFactory.TipoContrato[]",
          "name": "",
          "type": "tuple[]"
        }
      ],
      "stateMutability": "view",
      "type": "function"
    },
    {
      "inputs": [
        {
          "internalType": "address",
          "name": "_prestatario",
          "type": "address"
        }
      ],
      "name": "verContratos",
      "outputs": [
        {
          "internalType": "contract PrestamoCursando[]",
          "name": "",
          "type": "address[]"
        }
      ],
      "stateMutability": "view",
      "type": "function"
    },
    {
      "inputs": [
        {
          "internalType": "uint8",
          "name": "_porcentajeInteres",
          "type": "uint8"
        },
        {
          "internalType": "uint256",
          "name": "_cantidad",
          "type": "uint256"
        },
        {
          "internalType": "uint8",
          "name": "_cuotas",
          "type": "uint8"
        },
        {
          "internalType": "uint8",
          "name": "_penalizacionImpago",
          "type": "uint8"
        }
      ],
      "name": "definirPrestamo",
      "outputs": [],
      "stateMutability": "nonpayable",
      "type": "function"
    },
    {
      "inputs": [
        {
          "internalType": "address payable",
          "name": "_prestatario",
          "type": "address"
        },
        {
          "internalType": "uint8",
          "name": "indexTipoContrato",
          "type": "uint8"
        }
      ],
      "name": "contratarPrestamo",
      "outputs": [],
      "stateMutability": "nonpayable",
      "type": "function"
    },
    {
      "inputs": [
        {
          "internalType": "address",
          "name": "user",
          "type": "address"
        },
        {
          "internalType": "address",
          "name": "_finalizado",
          "type": "address"
        },
        {
          "internalType": "uint256",
          "name": "index",
          "type": "uint256"
        }
      ],
      "name": "eliminarPrestamoFinalizado",
      "outputs": [],
      "stateMutability": "nonpayable",
      "type": "function"
    }
  ],
  "bytecode": "0x608060405234801561000f575f80fd5b50335f806101000a81548173ffffffffffffffffffffffffffffffffffffffff021916908373ffffffffffffffffffffffffffffffffffffffff1602179055506133b78061005c5f395ff3fe60806040526004361062000095575f3560e01c806341206507116200006057806341206507146200014257806341cdeb79146200016f578063812939ad146200019e578063bf1014c514620001cb578063c350423f146200020e57620000a7565b80628fe49d14620000ab578063033b7fa014620000b757806312065fe014620000e657806316a75182146200011557620000a7565b36620000a757620000a56200023b565b005b5f80fd5b620000b56200023b565b005b348015620000c3575f80fd5b50620000ce62000278565b604051620000dd919062001423565b60405180910390f35b348015620000f2575f80fd5b50620000fd62000395565b6040516200010c91906200145f565b60405180910390f35b34801562000121575f80fd5b506200014060048036038101906200013a9190620014ad565b6200042c565b005b3480156200014e575f80fd5b506200016d600480360381019062000167919062001518565b62000530565b005b3480156200017b575f80fd5b5062000186620007dd565b604051620001959190620016d3565b60405180910390f35b348015620001aa575f80fd5b50620001c96004803603810190620001c3919062001737565b62000876565b005b348015620001d7575f80fd5b50620001f66004803603810190620001f09190620017ab565b62000c46565b604051620002059190620018f8565b60405180910390f35b3480156200021a575f80fd5b506200023960048036038101906200023391906200191a565b62000dd7565b005b7f64e71c76ee5c1bb24d4870ae0012c807f1472981764e000fa1b838dfe18501ff33346040516200026e92919062001984565b60405180910390a1565b60603373ffffffffffffffffffffffffffffffffffffffff165f8054906101000a900473ffffffffffffffffffffffffffffffffffffffff1673ffffffffffffffffffffffffffffffffffffffff16146200030a576040517f08c379a0000000000000000000000000000000000000000000000000000000008152600401620003019062001a0d565b60405180910390fd5b60038054806020026020016040519081016040528092919081815260200182805480156200038b57602002820191905f5260205f20905b815f9054906101000a900473ffffffffffffffffffffffffffffffffffffffff1673ffffffffffffffffffffffffffffffffffffffff168152602001906001019080831162000341575b5050505050905090565b5f3373ffffffffffffffffffffffffffffffffffffffff165f8054906101000a900473ffffffffffffffffffffffffffffffffffffffff1673ffffffffffffffffffffffffffffffffffffffff161462000426576040517f08c379a00000000000000000000000000000000000000000000000000000000081526004016200041d9062001a0d565b60405180910390fd5b47905090565b3373ffffffffffffffffffffffffffffffffffffffff165f8054906101000a900473ffffffffffffffffffffffffffffffffffffffff1673ffffffffffffffffffffffffffffffffffffffff1614620004bc576040517f08c379a0000000000000000000000000000000000000000000000000000000008152600401620004b39062001a0d565b60405180910390fd5b80471015620004c9575f80fd5b5f8054906101000a900473ffffffffffffffffffffffffffffffffffffffff1673ffffffffffffffffffffffffffffffffffffffff166108fc8290811502906040515f60405180830381858888f193505050501580156200052c573d5f803e3d5ffd5b5050565b3373ffffffffffffffffffffffffffffffffffffffff165f8054906101000a900473ffffffffffffffffffffffffffffffffffffffff1673ffffffffffffffffffffffffffffffffffffffff1614620005c0576040517f08c379a0000000000000000000000000000000000000000000000000000000008152600401620005b79062001a0d565b60405180910390fd5b5f8160ff1610158015620005d8575060648160ff1611155b6200061a576040517f08c379a0000000000000000000000000000000000000000000000000000000008152600401620006119062001aa1565b60405180910390fd5b5f8460ff161015801562000632575060648460ff1611155b62000674576040517f08c379a00000000000000000000000000000000000000000000000000000000081526004016200066b9062001b35565b60405180910390fd5b5f620006a26064620006938760ff1687620012ee90919063ffffffff16565b6200130590919063ffffffff16565b84620006af919062001b82565b90505f6040518060c001604052805f81526020018760ff1681526020018681526020018381526020018560ff1681526020018460ff168152509050600181908060018154018082558091505060019003905f5260205f2090600602015f909190919091505f820151815f01556020820151816001015560408201518160020155606082015181600301556080820151816004015560a0820151816005015550506001808054905062000762919062001bbc565b600180808054905062000776919062001bbc565b815481106200078a576200078962001bf6565b5b905f5260205f2090600602015f01819055507f6fddbfd2fd816baefe3d0f8e8d1c78dc21f2a4a0cd1807f196800d204b407dc481604051620007cd919062001ca8565b60405180910390a1505050505050565b60606001805480602002602001604051908101604052809291908181526020015f905b828210156200086d578382905f5260205f2090600602016040518060c00160405290815f8201548152602001600182015481526020016002820154815260200160038201548152602001600482015481526020016005820154815250508152602001906001019062000800565b50505050905090565b8173ffffffffffffffffffffffffffffffffffffffff163373ffffffffffffffffffffffffffffffffffffffff1614620008e7576040517f08c379a0000000000000000000000000000000000000000000000000000000008152600401620008de9062001d37565b60405180910390fd5b5f60018260ff168154811062000902576200090162001bf6565b5b905f5260205f2090600602016040518060c00160405290815f82015481526020016001820154815260200160028201548152602001600382015481526020016004820154815260200160058201548152505090508060400151471015620009a0576040517f08c379a0000000000000000000000000000000000000000000000000000000008152600401620009979062001da5565b60405180910390fd5b5f60025f8573ffffffffffffffffffffffffffffffffffffffff1673ffffffffffffffffffffffffffffffffffffffff1681526020019081526020015f20805490500362000a4957600383908060018154018082558091505060019003905f5260205f20015f9091909190916101000a81548173ffffffffffffffffffffffffffffffffffffffff021916908373ffffffffffffffffffffffffffffffffffffffff1602179055505b5f60025f8573ffffffffffffffffffffffffffffffffffffffff1673ffffffffffffffffffffffffffffffffffffffff1681526020019081526020015f208054905090505f81855f8054906101000a900473ffffffffffffffffffffffffffffffffffffffff168560800151866040015187606001518860a0015160405162000ad2906200131c565b62000ae4979695949392919062001dfc565b604051809103905ff08015801562000afe573d5f803e3d5ffd5b5090508473ffffffffffffffffffffffffffffffffffffffff168173ffffffffffffffffffffffffffffffffffffffff167fc7b7112182249981bbc0b19d529036fdb655a5efeff09cab01cce30a907a3a4c60405160405180910390a360025f8673ffffffffffffffffffffffffffffffffffffffff1673ffffffffffffffffffffffffffffffffffffffff1681526020019081526020015f2081908060018154018082558091505060019003905f5260205f20015f9091909190916101000a81548173ffffffffffffffffffffffffffffffffffffffff021916908373ffffffffffffffffffffffffffffffffffffffff1602179055508473ffffffffffffffffffffffffffffffffffffffff166108fc846040015190811502906040515f60405180830381858888f1935050505015801562000c3e573d5f803e3d5ffd5b505050505050565b60605f8054906101000a900473ffffffffffffffffffffffffffffffffffffffff1673ffffffffffffffffffffffffffffffffffffffff163373ffffffffffffffffffffffffffffffffffffffff16148062000ccd57508173ffffffffffffffffffffffffffffffffffffffff163373ffffffffffffffffffffffffffffffffffffffff16145b62000d0f576040517f08c379a000000000000000000000000000000000000000000000000000000000815260040162000d069062001ec5565b60405180910390fd5b60025f8373ffffffffffffffffffffffffffffffffffffffff1673ffffffffffffffffffffffffffffffffffffffff1681526020019081526020015f2080548060200260200160405190810160405280929190818152602001828054801562000dcb57602002820191905f5260205f20905b815f9054906101000a900473ffffffffffffffffffffffffffffffffffffffff1673ffffffffffffffffffffffffffffffffffffffff168152602001906001019080831162000d81575b50505050509050919050565b8173ffffffffffffffffffffffffffffffffffffffff163373ffffffffffffffffffffffffffffffffffffffff161462000e48576040517f08c379a000000000000000000000000000000000000000000000000000000000815260040162000e3f9062001f59565b60405180910390fd5b60025f8473ffffffffffffffffffffffffffffffffffffffff1673ffffffffffffffffffffffffffffffffffffffff1681526020019081526020015f20600160025f8673ffffffffffffffffffffffffffffffffffffffff1673ffffffffffffffffffffffffffffffffffffffff1681526020019081526020015f208054905062000ed4919062001bbc565b8154811062000ee85762000ee762001bf6565b5b905f5260205f20015f9054906101000a900473ffffffffffffffffffffffffffffffffffffffff1660025f8573ffffffffffffffffffffffffffffffffffffffff1673ffffffffffffffffffffffffffffffffffffffff1681526020019081526020015f20828154811062000f625762000f6162001bf6565b5b905f5260205f20015f6101000a81548173ffffffffffffffffffffffffffffffffffffffff021916908373ffffffffffffffffffffffffffffffffffffffff16021790555060025f8473ffffffffffffffffffffffffffffffffffffffff1673ffffffffffffffffffffffffffffffffffffffff1681526020019081526020015f20818154811062000ff95762000ff862001bf6565b5b905f5260205f20015f9054906101000a900473ffffffffffffffffffffffffffffffffffffffff1673ffffffffffffffffffffffffffffffffffffffff166340a5737f826040518263ffffffff1660e01b81526004016200105b91906200145f565b5f604051808303815f87803b15801562001073575f80fd5b505af115801562001086573d5f803e3d5ffd5b5050505060025f8473ffffffffffffffffffffffffffffffffffffffff1673ffffffffffffffffffffffffffffffffffffffff1681526020019081526020015f20805480620010da57620010d962001f79565b5b600190038181905f5260205f20015f6101000a81549073ffffffffffffffffffffffffffffffffffffffff021916905590555f60025f8573ffffffffffffffffffffffffffffffffffffffff1673ffffffffffffffffffffffffffffffffffffffff1681526020019081526020015f208054905003620012e9575f5b600380549050811015620012a0578373ffffffffffffffffffffffffffffffffffffffff166003828154811062001192576200119162001bf6565b5b905f5260205f20015f9054906101000a900473ffffffffffffffffffffffffffffffffffffffff1673ffffffffffffffffffffffffffffffffffffffff16036200128a5760036001600380549050620011ec919062001bbc565b815481106200120057620011ff62001bf6565b5b905f5260205f20015f9054906101000a900473ffffffffffffffffffffffffffffffffffffffff16600382815481106200123f576200123e62001bf6565b5b905f5260205f20015f6101000a81548173ffffffffffffffffffffffffffffffffffffffff021916908373ffffffffffffffffffffffffffffffffffffffff160217905550620012a0565b8080620012979062001fa6565b91505062001156565b506003805480620012b657620012b562001f79565b5b600190038181905f5260205f20015f6101000a81549073ffffffffffffffffffffffffffffffffffffffff021916905590555b505050565b5f8183620012fd919062001ff2565b905092915050565b5f818362001314919062002069565b905092915050565b6112e180620020a183390190565b5f81519050919050565b5f82825260208201905092915050565b5f819050602082019050919050565b5f73ffffffffffffffffffffffffffffffffffffffff82169050919050565b5f6200137e8262001353565b9050919050565b620013908162001372565b82525050565b5f620013a3838362001385565b60208301905092915050565b5f602082019050919050565b5f620013c7826200132a565b620013d3818562001334565b9350620013e08362001344565b805f5b8381101562001416578151620013fa888262001396565b97506200140783620013af565b925050600181019050620013e3565b5085935050505092915050565b5f6020820190508181035f8301526200143d8184620013bb565b905092915050565b5f819050919050565b620014598162001445565b82525050565b5f602082019050620014745f8301846200144e565b92915050565b5f80fd5b620014898162001445565b811462001494575f80fd5b50565b5f81359050620014a7816200147e565b92915050565b5f60208284031215620014c557620014c46200147a565b5b5f620014d48482850162001497565b91505092915050565b5f60ff82169050919050565b620014f481620014dd565b8114620014ff575f80fd5b50565b5f813590506200151281620014e9565b92915050565b5f805f80608085870312156200153357620015326200147a565b5b5f620015428782880162001502565b9450506020620015558782880162001497565b9350506040620015688782880162001502565b92505060606200157b8782880162001502565b91505092959194509250565b5f81519050919050565b5f82825260208201905092915050565b5f819050602082019050919050565b620015bb8162001445565b82525050565b60c082015f820151620015d75f850182620015b0565b506020820151620015ec6020850182620015b0565b506040820151620016016040850182620015b0565b506060820151620016166060850182620015b0565b5060808201516200162b6080850182620015b0565b5060a08201516200164060a0850182620015b0565b50505050565b5f620016538383620015c1565b60c08301905092915050565b5f602082019050919050565b5f620016778262001587565b62001683818562001591565b93506200169083620015a1565b805f5b83811015620016c6578151620016aa888262001646565b9750620016b7836200165f565b92505060018101905062001693565b5085935050505092915050565b5f6020820190508181035f830152620016ed81846200166b565b905092915050565b5f620017018262001353565b9050919050565b6200171381620016f5565b81146200171e575f80fd5b50565b5f81359050620017318162001708565b92915050565b5f806040838503121562001750576200174f6200147a565b5b5f6200175f8582860162001721565b9250506020620017728582860162001502565b9150509250929050565b620017878162001372565b811462001792575f80fd5b50565b5f81359050620017a5816200177c565b92915050565b5f60208284031215620017c357620017c26200147a565b5b5f620017d28482850162001795565b91505092915050565b5f81519050919050565b5f82825260208201905092915050565b5f819050602082019050919050565b5f819050919050565b5f6200182d62001827620018218462001353565b62001804565b62001353565b9050919050565b5f62001840826200180d565b9050919050565b5f620018538262001834565b9050919050565b620018658162001847565b82525050565b5f6200187883836200185a565b60208301905092915050565b5f602082019050919050565b5f6200189c82620017db565b620018a88185620017e5565b9350620018b583620017f5565b805f5b83811015620018eb578151620018cf88826200186b565b9750620018dc8362001884565b925050600181019050620018b8565b5085935050505092915050565b5f6020820190508181035f83015262001912818462001890565b905092915050565b5f805f606084860312156200193457620019336200147a565b5b5f620019438682870162001795565b9350506020620019568682870162001795565b9250506040620019698682870162001497565b9150509250925092565b6200197e8162001372565b82525050565b5f604082019050620019995f83018562001973565b620019a860208301846200144e565b9392505050565b5f82825260208201905092915050565b7f4f6e6c79204f776e6572000000000000000000000000000000000000000000005f82015250565b5f620019f5600a83620019af565b915062001a0282620019bf565b602082019050919050565b5f6020820190508181035f83015262001a2681620019e7565b9050919050565b7f4c612070656e616c697a6163696f6e207469656e65207175652073657220756e5f8201527f20706f7263656e74616a65000000000000000000000000000000000000000000602082015250565b5f62001a89602b83620019af565b915062001a968262001a2d565b604082019050919050565b5f6020820190508181035f83015262001aba8162001a7b565b9050919050565b7f456c20696e7465726573207469656e65207175652073657220756e20706f72635f8201527f656e74616a650000000000000000000000000000000000000000000000000000602082015250565b5f62001b1d602683620019af565b915062001b2a8262001ac1565b604082019050919050565b5f6020820190508181035f83015262001b4e8162001b0f565b9050919050565b7f4e487b71000000000000000000000000000000000000000000000000000000005f52601160045260245ffd5b5f62001b8e8262001445565b915062001b9b8362001445565b925082820190508082111562001bb65762001bb562001b55565b5b92915050565b5f62001bc88262001445565b915062001bd58362001445565b925082820390508181111562001bf05762001bef62001b55565b5b92915050565b7f4e487b71000000000000000000000000000000000000000000000000000000005f52603260045260245ffd5b60c082015f82015162001c395f850182620015b0565b50602082015162001c4e6020850182620015b0565b50604082015162001c636040850182620015b0565b50606082015162001c786060850182620015b0565b50608082015162001c8d6080850182620015b0565b5060a082015162001ca260a0850182620015b0565b50505050565b5f60c08201905062001cbd5f83018462001c23565b92915050565b7f4e6f20736520707565646520636f6e74726174617220656e206e6f6d627265205f8201527f6465206f74726f73000000000000000000000000000000000000000000000000602082015250565b5f62001d1f602883620019af565b915062001d2c8262001cc3565b604082019050919050565b5f6020820190508181035f83015262001d508162001d11565b9050919050565b7f5072657374616d6f206e6f20646973706f6e69626c65000000000000000000005f82015250565b5f62001d8d601683620019af565b915062001d9a8262001d57565b602082019050919050565b5f6020820190508181035f83015262001dbe8162001d7f565b9050919050565b5f62001dd1826200180d565b9050919050565b5f62001de48262001dc5565b9050919050565b62001df68162001dd8565b82525050565b5f60e08201905062001e115f83018a6200144e565b62001e20602083018962001deb565b62001e2f604083018862001deb565b62001e3e60608301876200144e565b62001e4d60808301866200144e565b62001e5c60a08301856200144e565b62001e6b60c08301846200144e565b98975050505050505050565b7f546f7020536563726574000000000000000000000000000000000000000000005f82015250565b5f62001ead600a83620019af565b915062001eba8262001e77565b602082019050919050565b5f6020820190508181035f83015262001ede8162001e9f565b9050919050565b7f4c6f7320636f6e747261746f73207365206175746f656c696d696e616e20756e5f8201527f612076657a2066696e616c697a61646f73000000000000000000000000000000602082015250565b5f62001f41603183620019af565b915062001f4e8262001ee5565b604082019050919050565b5f6020820190508181035f83015262001f728162001f33565b9050919050565b7f4e487b71000000000000000000000000000000000000000000000000000000005f52603160045260245ffd5b5f62001fb28262001445565b91507fffffffffffffffffffffffffffffffffffffffffffffffffffffffffffffffff820362001fe75762001fe662001b55565b5b600182019050919050565b5f62001ffe8262001445565b91506200200b8362001445565b92508282026200201b8162001445565b9150828204841483151762002035576200203462001b55565b5b5092915050565b7f4e487b71000000000000000000000000000000000000000000000000000000005f52601260045260245ffd5b5f620020758262001445565b9150620020828362001445565b9250826200209557620020946200203c565b5b82820490509291505056fe608060405234801562000010575f80fd5b50604051620012e1380380620012e1833981810160405281019062000036919062000258565b865f819055506001805f6101000a81548160ff0219169083600281111562000063576200006262000306565b5b0217905550856001806101000a81548173ffffffffffffffffffffffffffffffffffffffff021916908373ffffffffffffffffffffffffffffffffffffffff1602179055508460025f6101000a81548173ffffffffffffffffffffffffffffffffffffffff021916908373ffffffffffffffffffffffffffffffffffffffff1602179055503360035f6101000a81548173ffffffffffffffffffffffffffffffffffffffff021916908373ffffffffffffffffffffffffffffffffffffffff16021790555083600481905550826005819055508160068190555080600881905550620001546200016e60201b60201c565b600781905550426009819055505050505050505062000397565b5f60016004540362000185576006549050620001a1565b6200019e600454600654620001a460201b90919060201c565b90505b90565b5f8183620001b3919062000360565b905092915050565b5f80fd5b5f819050919050565b620001d381620001bf565b8114620001de575f80fd5b50565b5f81519050620001f181620001c8565b92915050565b5f73ffffffffffffffffffffffffffffffffffffffff82169050919050565b5f6200022282620001f7565b9050919050565b620002348162000216565b81146200023f575f80fd5b50565b5f81519050620002528162000229565b92915050565b5f805f805f805f60e0888a031215620002765762000275620001bb565b5b5f620002858a828b01620001e1565b9750506020620002988a828b0162000242565b9650506040620002ab8a828b0162000242565b9550506060620002be8a828b01620001e1565b9450506080620002d18a828b01620001e1565b93505060a0620002e48a828b01620001e1565b92505060c0620002f78a828b01620001e1565b91505092959891949750929550565b7f4e487b71000000000000000000000000000000000000000000000000000000005f52602160045260245ffd5b7f4e487b71000000000000000000000000000000000000000000000000000000005f52601260045260245ffd5b5f6200036c82620001bf565b91506200037983620001bf565b9250826200038c576200038b62000333565b5b828204905092915050565b610f3c80620003a55f395ff3fe608060405260043610610058575f3560e01c80631d3eb5351461006b5780633cc2d80e1461009557806340a5737f146100bf5780635fbfcf3b146100e75780638c469289146100f1578063b5413ff81461010757610067565b366100675761006561012f565b005b5f80fd5b348015610076575f80fd5b5061007f610328565b60405161008c9190610a4f565b60405180910390f35b3480156100a0575f80fd5b506100a96103f9565b6040516100b69190610a78565b60405180910390f35b3480156100ca575f80fd5b506100e560048036038101906100e09190610abf565b6103fe565b005b6100ef61012f565b005b3480156100fc575f80fd5b50610105610496565b005b348015610112575f80fd5b5061012d60048036038101906101289190610abf565b610671565b005b60018054906101000a900473ffffffffffffffffffffffffffffffffffffffff1673ffffffffffffffffffffffffffffffffffffffff163373ffffffffffffffffffffffffffffffffffffffff16146101bd576040517f08c379a00000000000000000000000000000000000000000000000000000000081526004016101b490610b44565b60405180910390fd5b6007543414610201576040517f08c379a00000000000000000000000000000000000000000000000000000000081526004016101f890610bac565b60405180910390fd5b6001600281111561021557610214610912565b5b60015f9054906101000a900460ff16600281111561023657610235610912565b5b14610276576040517f08c379a000000000000000000000000000000000000000000000000000000000815260040161026d90610c14565b60405180910390fd5b5f60015f6101000a81548160ff0219169083600281111561029a57610299610912565b5b021790555060075460065f8282546102b29190610c5f565b9250508190555060045f8154809291906102cb90610c92565b91905055506001600454036102e9576102e26106d9565b6007819055505b5f6004540361031d57600260015f6101000a81548160ff0219169083600281111561031757610316610912565b5b02179055505b61032634610671565b565b610330610834565b5f6040518061014001604052803073ffffffffffffffffffffffffffffffffffffffff1681526020015f54815260200160018054906101000a900473ffffffffffffffffffffffffffffffffffffffff1673ffffffffffffffffffffffffffffffffffffffff16815260200160015f9054906101000a900460ff1660028111156103bd576103bc610912565b5b81526020016005548152602001600654815260200160075481526020016004548152602001600854815260200160095481525090508091505090565b600a81565b3373ffffffffffffffffffffffffffffffffffffffff1660035f9054906101000a900473ffffffffffffffffffffffffffffffffffffffff1673ffffffffffffffffffffffffffffffffffffffff161461048d576040517f08c379a000000000000000000000000000000000000000000000000000000000815260040161048490610d03565b60405180910390fd5b805f8190555050565b3373ffffffffffffffffffffffffffffffffffffffff1660025f9054906101000a900473ffffffffffffffffffffffffffffffffffffffff1673ffffffffffffffffffffffffffffffffffffffff1614610525576040517f08c379a000000000000000000000000000000000000000000000000000000000815260040161051c90610d6b565b60405180910390fd5b600a600954426105359190610c5f565b1015610576576040517f08c379a000000000000000000000000000000000000000000000000000000000815260040161056d90610dd3565b60405180910390fd5b6001600281111561058a57610589610912565b5b60015f9054906101000a900460ff1660028111156105ab576105aa610912565b5b036105bd576105b861070b565b610668565b5f60028111156105d0576105cf610912565b5b60015f9054906101000a900460ff1660028111156105f1576105f0610912565b5b03610624576001805f6101000a81548160ff0219169083600281111561061a57610619610912565b5b0217905550610667565b60028081111561063757610636610912565b5b60015f9054906101000a900460ff16600281111561065857610657610912565b5b036106665761066561075c565b5b5b5b42600981905550565b60035f9054906101000a900473ffffffffffffffffffffffffffffffffffffffff1673ffffffffffffffffffffffffffffffffffffffff166108fc8290811502906040515f60405180830381858888f193505050501580156106d5573d5f803e3d5ffd5b5050565b5f6001600454036106ee576006549050610708565b61070560045460065461080a90919063ffffffff16565b90505b90565b610735606461072760085460065461081f90919063ffffffff16565b61080a90919063ffffffff16565b60065f8282546107459190610df1565b925050819055506107546106d9565b600781905550565b60035f9054906101000a900473ffffffffffffffffffffffffffffffffffffffff1673ffffffffffffffffffffffffffffffffffffffff1663c350423f60018054906101000a900473ffffffffffffffffffffffffffffffffffffffff16305f546040518463ffffffff1660e01b81526004016107db93929190610e33565b5f604051808303815f87803b1580156107f2575f80fd5b505af1158015610804573d5f803e3d5ffd5b50505050565b5f81836108179190610e95565b905092915050565b5f818361082c9190610ec5565b905092915050565b6040518061014001604052805f73ffffffffffffffffffffffffffffffffffffffff1681526020015f81526020015f73ffffffffffffffffffffffffffffffffffffffff1681526020015f600281111561089157610890610912565b5b81526020015f81526020015f81526020015f81526020015f81526020015f81526020015f81525090565b5f73ffffffffffffffffffffffffffffffffffffffff82169050919050565b5f6108e4826108bb565b9050919050565b6108f4816108da565b82525050565b5f819050919050565b61090c816108fa565b82525050565b7f4e487b71000000000000000000000000000000000000000000000000000000005f52602160045260245ffd5b600381106109505761094f610912565b5b50565b5f8190506109608261093f565b919050565b5f61096f82610953565b9050919050565b61097f81610965565b82525050565b61014082015f82015161099a5f8501826108eb565b5060208201516109ad6020850182610903565b5060408201516109c060408501826108eb565b5060608201516109d36060850182610976565b5060808201516109e66080850182610903565b5060a08201516109f960a0850182610903565b5060c0820151610a0c60c0850182610903565b5060e0820151610a1f60e0850182610903565b50610100820151610a34610100850182610903565b50610120820151610a49610120850182610903565b50505050565b5f61014082019050610a635f830184610985565b92915050565b610a72816108fa565b82525050565b5f602082019050610a8b5f830184610a69565b92915050565b5f80fd5b610a9e816108fa565b8114610aa8575f80fd5b50565b5f81359050610ab981610a95565b92915050565b5f60208284031215610ad457610ad3610a91565b5b5f610ae184828501610aab565b91505092915050565b5f82825260208201905092915050565b7f4f6e6c7920626f72726f776572000000000000000000000000000000000000005f82015250565b5f610b2e600d83610aea565b9150610b3982610afa565b602082019050919050565b5f6020820190508181035f830152610b5b81610b22565b9050919050565b7f53656e6420657861637420646562742076616c756500000000000000000000005f82015250565b5f610b96601583610aea565b9150610ba182610b62565b602082019050919050565b5f6020820190508181035f830152610bc381610b8a565b9050919050565b7f5061796d656e7420706572696f64206e6f74206f70656e0000000000000000005f82015250565b5f610bfe601783610aea565b9150610c0982610bca565b602082019050919050565b5f6020820190508181035f830152610c2b81610bf2565b9050919050565b7f4e487b71000000000000000000000000000000000000000000000000000000005f52601160045260245ffd5b5f610c69826108fa565b9150610c74836108fa565b9250828203905081811115610c8c57610c8b610c32565b5b92915050565b5f610c9c826108fa565b91505f8203610cae57610cad610c32565b5b600182039050919050565b7f4f6e6c7920636f6e747261637420466163746f727900000000000000000000005f82015250565b5f610ced601583610aea565b9150610cf882610cb9565b602082019050919050565b5f6020820190508181035f830152610d1a81610ce1565b9050919050565b7f4f6e6c792066696e616e6369616c20656e7469747900000000000000000000005f82015250565b5f610d55601583610aea565b9150610d6082610d21565b602082019050919050565b5f6020820190508181035f830152610d8281610d49565b9050919050565b7f446561646c696e6520686173206e6f74207965742065787069726564000000005f82015250565b5f610dbd601c83610aea565b9150610dc882610d89565b602082019050919050565b5f6020820190508181035f830152610dea81610db1565b9050919050565b5f610dfb826108fa565b9150610e06836108fa565b9250828201905080821115610e1e57610e1d610c32565b5b92915050565b610e2d816108da565b82525050565b5f606082019050610e465f830186610e24565b610e536020830185610e24565b610e606040830184610a69565b949350505050565b7f4e487b71000000000000000000000000000000000000000000000000000000005f52601260045260245ffd5b5f610e9f826108fa565b9150610eaa836108fa565b925082610eba57610eb9610e68565b5b828204905092915050565b5f610ecf826108fa565b9150610eda836108fa565b9250828202610ee8816108fa565b91508282048414831517610eff57610efe610c32565b5b509291505056fea264697066735822122019d34fc97f1c66726cf9efe13ac828c30415ac8ba4c61659f4d6950e769b156d64736f6c63430008140033a2646970667358221220d66e675835fccee58fc4f9fd5cc2ebe54b32dc3a21f1ba32d73f31cdfadaa20664736f6c63430008140033",
  "immutableReferences": {},
  "source": "// SPDX-License-Identifier: GPL-3.0\r\npragma solidity >=0.8.0 <0.9.0;\r\nimport \"@openzeppelin/contracts/utils/math/SafeMath.sol\";\r\n//SafeMath.sol no aparece con npm install, importado manualmente \r\ncontract PrestamosFactory {\r\n\r\n    using SafeMath for uint256;\r\n\r\n    address payable private owner;\r\n    //Posibles prestamos a contratar\r\n    TipoContrato[] tiposContrato;\r\n    \r\n    mapping(address => PrestamoCursando[])  prestamosCursando;\r\n    address[] clientes;\r\n\r\n    struct TipoContrato {\r\n        uint256 index;\r\n        uint256 porcentajeInteres; \r\n        uint256 cantidad; \r\n        uint256 deudaTotal;\r\n        uint256 cuotas;\r\n        uint256 penalizacionImpago;\r\n    }\r\n    \r\n    event PrestamoDefinido(TipoContrato tipoContrato);\r\n    event NuevoPrestamoCursando(address indexed direccionContrato, address indexed prestatario);\r\n    event FondosRecibidos(address direccion,uint256 cantidad);\r\n\r\n    modifier onlyOwner() {\r\n        require(owner == msg.sender,\"Only Owner\");\r\n         _;\r\n    }\r\n    \r\n    constructor(){\r\n        owner = payable(msg.sender);\r\n    }\r\n\r\n    receive() external payable {\r\n        invertir();\r\n    }\r\n\r\n    function invertir() public payable {\r\n        emit FondosRecibidos(msg.sender, msg.value);\r\n    }\r\n\r\n    function getBalance() public view onlyOwner returns(uint256) {\r\n    \r\n        return address(this).balance;\r\n    }\r\n    function getClientes() public view onlyOwner  returns(address[] memory) {\r\n        return clientes;\r\n\r\n    }\r\n\r\n    function recolectarFondos(uint256 amount) public  onlyOwner {\r\n        require(address(this).balance >= amount);\r\n        owner.transfer(amount);\r\n\r\n    }\r\n\r\n    function verTiposContrato() public view returns (TipoContrato[] memory) {\r\n        return tiposContrato;\r\n    }\r\n\r\n\r\n    function verContratos(address _prestatario) public view returns (PrestamoCursando[] memory){\r\n        require((msg.sender == owner)||(msg.sender == _prestatario), \"Top Secret\");\r\n        return (prestamosCursando[_prestatario]);\r\n    }\r\n\r\n\r\n    function definirPrestamo(uint8 _porcentajeInteres, uint256 _cantidad, uint8 _cuotas, uint8 _penalizacionImpago) public onlyOwner {\r\n\r\n        require(_penalizacionImpago >= 0 && _penalizacionImpago <= 100, \"La penalizacion tiene que ser un porcentaje\");\r\n        require(_porcentajeInteres >= 0 && _porcentajeInteres <= 100, \"El interes tiene que ser un porcentaje\");\r\n\r\n\r\n        uint256 _deudaTotal = _cantidad + _cantidad.mul(_porcentajeInteres).div(100);\r\n\r\n        TipoContrato memory nuevoPrestamo = TipoContrato({\r\n            index: 0 ,\r\n            porcentajeInteres: _porcentajeInteres,\r\n            cantidad: _cantidad,\r\n            deudaTotal: _deudaTotal,\r\n            cuotas: _cuotas,\r\n            penalizacionImpago: _penalizacionImpago\r\n        });\r\n\r\n        tiposContrato.push(nuevoPrestamo);\r\n        //Guardo el index dentro del Objeto prstamo para mayor facilidad de acceso \r\n        tiposContrato[tiposContrato.length - 1].index = tiposContrato.length-1;\r\n        emit PrestamoDefinido(nuevoPrestamo);\r\n    \r\n    }\r\n\r\n\r\n\r\n   \r\n    function contratarPrestamo(address payable _prestatario, uint8 indexTipoContrato) public {\r\n\r\n        require(msg.sender == _prestatario, \"No se puede contratar en nombre de otros\");\r\n\r\n        TipoContrato memory tipoPrestamo = tiposContrato[indexTipoContrato];\r\n        require(address(this).balance >= tipoPrestamo.cantidad,\"Prestamo no disponible\");\r\n\r\n        //Compruebo si la cuenta tiene otro conrtrato contratado\r\n        if(prestamosCursando[_prestatario].length == 0){\r\n            clientes.push(_prestatario);\r\n        }\r\n        //Guardo index para faciltar acceso\r\n        uint256 _indexNuevoPrestamo = prestamosCursando[_prestatario].length;\r\n        // Genero un nuevo contrato Prestamo asociado a la direccin msg.sender\r\n        PrestamoCursando newPrestamo = new PrestamoCursando(_indexNuevoPrestamo, _prestatario, owner, tipoPrestamo.cuotas, tipoPrestamo.cantidad,\r\n                                                            tipoPrestamo.deudaTotal, tipoPrestamo.penalizacionImpago);\r\n\r\n        //Enviar dinero a usuario\r\n        emit NuevoPrestamoCursando(address(newPrestamo), _prestatario);                                                \r\n        prestamosCursando[_prestatario].push(newPrestamo);\r\n        _prestatario.transfer(tipoPrestamo.cantidad);\r\n\r\n    }\r\n\r\n    function  eliminarPrestamoFinalizado(address user, address _finalizado, uint index) external {\r\n        require(msg.sender == _finalizado, \"Los contratos se autoeliminan una vez finalizados\");\r\n        //Se copia el ultimo elemento del array y se le cambia el ndice\r\n        prestamosCursando[user][index] = prestamosCursando[user][prestamosCursando[user].length - 1];\r\n        prestamosCursando[user][index].setIndex(index);\r\n        //Se elimina el elemento copiado\r\n        prestamosCursando[user].pop();\r\n\r\n        //En caso de que el cliente deje de tener contratos con nostros le eliminamos de la lista de clientes\r\n        if( prestamosCursando[user].length == 0){\r\n            for(uint i = 0 ; i < clientes.length; i ++ ) {\r\n                if (clientes[i] == user) {\r\n                    clientes[i] = clientes[clientes.length - 1];\r\n                    break;\r\n                }\r\n            }\r\n            clientes.pop();\r\n        }\r\n\r\n    }\r\n    \r\n    }\r\n\r\ncontract PrestamoCursando {\r\n\r\n    using SafeMath for uint256;\r\n\r\n    uint index;\r\n    enum State { PAGADO, ABIERTO, FINALIZADO }\r\n    State state;\r\n    address prestatario;\r\n    address entidadFinanciera;\r\n    address payable prestamosFactory;\r\n    uint256 cuotasRestantes;\r\n    uint256 cantidadPrestada;\r\n    uint256 deudaRestante;\r\n    uint256 cuotaMensual;\r\n    uint256 penalizacion;\r\n    uint256 ultimoCheckeo;\r\n\r\n    struct InfoContrato {\r\n        address _direccion;\r\n        uint256 _index;\r\n        address _prestatario;\r\n        State _state;\r\n        uint256 _cantidadPrestada; \r\n        uint256 _deudaRestante;\r\n        uint256 _cuotaMensual;\r\n        uint256 _cuotasRestantes;\r\n        uint256 _penalizacionImpago;\r\n        uint256 _ultimoCheckeo;\r\n    }\r\n\r\n    //2629800 = 1 MES;\r\n    uint256 public constant PLAZO = 10;\r\n\r\n    modifier onlyFinancialEntity() {\r\n        require(entidadFinanciera == msg.sender,\"Only financial entity\");\r\n         _;\r\n    }\r\n    \r\n    modifier onlyContractFactory() {\r\n        require(prestamosFactory == msg.sender,\"Only contract Factory\");\r\n         _;\r\n    }\r\n\r\n    modifier hasBeenOneMonth() {\r\n        require(block.timestamp - ultimoCheckeo >= PLAZO, \"Deadline has not yet expired\" );\r\n        _;\r\n    }\r\n\r\n    constructor(uint256 _index, address _prestatario, address _entidad, uint256 _cuotasRestantes, uint256 _cantidad, uint256 _deudaTotal, uint256 _penalizacion){\r\n        index = _index;\r\n        state = State.ABIERTO;\r\n        prestatario = _prestatario;\r\n        entidadFinanciera = _entidad;\r\n        prestamosFactory = payable(msg.sender);\r\n        cuotasRestantes = _cuotasRestantes;\r\n        cantidadPrestada = _cantidad;\r\n        deudaRestante = _deudaTotal;\r\n        penalizacion = _penalizacion;\r\n        cuotaMensual = calculoCuotaMensual();\r\n        ultimoCheckeo = block.timestamp;\r\n    }\r\n\r\n    function mostrarInfo() external view returns (InfoContrato memory){\r\n        InfoContrato memory infoContrato = InfoContrato({\r\n            _direccion: address(this),\r\n            _index: index,\r\n            _prestatario: prestatario,\r\n            _state: state,\r\n            _cantidadPrestada: cantidadPrestada,\r\n            _deudaRestante: deudaRestante,\r\n            _cuotaMensual: cuotaMensual,\r\n            _cuotasRestantes: cuotasRestantes,\r\n            _penalizacionImpago: penalizacion,\r\n            _ultimoCheckeo: ultimoCheckeo\r\n        });\r\n    \r\n        return infoContrato;\r\n    }\r\n\r\n\r\n    function setIndex(uint _index) external onlyContractFactory {\r\n        index = _index;\r\n    }\r\n\r\n    function calculoCuotaMensual() private view returns (uint256){\r\n        //Debido a problemas con el tratamiento de decimales de solidity puede resultar el caso que\r\n        // deudarestante/cuotasrestantes no de un numero entero\r\n        //Esto implica que quede deuda despues de pagar todas las cuotas por lo que este resto se aade a la cuota final\r\n        if(cuotasRestantes == 1) {\r\n            return  deudaRestante;\r\n            }\r\n        else {\r\n            return deudaRestante.div(cuotasRestantes);\r\n        }\r\n       \r\n    }\r\n\r\n    function checkeoMensual() onlyFinancialEntity hasBeenOneMonth public {\r\n        \r\n        if(state == State.ABIERTO){\r\n            penalizarPrestamo();\r\n        }\r\n        else if(state == State.PAGADO){\r\n            state = State.ABIERTO;\r\n        }\r\n        else if (state == State.FINALIZADO){\r\n            eliminarContratoFinalizado();\r\n        }\r\n\r\n        ultimoCheckeo = block.timestamp;\r\n  \r\n    }\r\n\r\n    function eliminarContratoFinalizado() private {\r\n        PrestamosFactory(prestamosFactory).eliminarPrestamoFinalizado(prestatario, address(this), index); \r\n    }\r\n\r\n    //Numero de cuotas se mantiene\r\n    function penalizarPrestamo() private {\r\n        deudaRestante += deudaRestante.mul(penalizacion).div(100); \r\n        cuotaMensual = calculoCuotaMensual();\r\n    }\r\n\r\n    receive() external payable {\r\n        pagarMensualidad();\r\n    }\r\n\r\n    function pagarMensualidad() payable public {\r\n        require(msg.sender == prestatario, \"Only borrower\");\r\n        require(msg.value == cuotaMensual, \"Send exact debt value\");\r\n        require(state == State.ABIERTO, \"Payment period not open\");\r\n       \r\n        state = State.PAGADO;\r\n        deudaRestante -= cuotaMensual;\r\n        cuotasRestantes--;\r\n\r\n       \r\n        if(cuotasRestantes == 1){\r\n            cuotaMensual = calculoCuotaMensual();\r\n         }\r\n\r\n        if(cuotasRestantes == 0){\r\n         state = State.FINALIZADO;\r\n        }\r\n        transferirFondosAFactory(msg.value);\r\n        \r\n    }\r\n\r\n    //Por seguridad se pone a public para evitar fondos bloqueados en este contrato.\r\n    function transferirFondosAFactory(uint256 _amount) public {\r\n        prestamosFactory.transfer(_amount);\r\n    }\r\n    \r\n\r\n\r\n}",
  "sourcePath": "C:\\Users\\akila\\Desktop\\PRESTAMOS FACTORY\\myApp\\truffle\\contracts\\PRESTAMOS_FACTORY.sol",
  "compiler": {
    "name": "solc",
    "version": "0.8.20+commit.a1b79de6.Emscripten.clang"
  },
  "schemaVersion": "3.4.16",
  "updatedAt": "2023-12-10T10:26:59.231Z",
  "devdoc": {
    "kind": "dev",
    "methods": {},
    "version": 1
  },
  "userdoc": {
    "kind": "user",
    "methods": {},
    "version": 1
  }
}