{
  "contractName": "PrestamosFactory",
  "abi": [
    {
      "inputs": [],
      "stateMutability": "nonpayable",
      "type": "constructor"
    },
    {
      "anonymous": false,
      "inputs": [
        {
          "indexed": false,
          "internalType": "address",
          "name": "direccion",
          "type": "address"
        },
        {
          "indexed": false,
          "internalType": "uint256",
          "name": "cantidad",
          "type": "uint256"
        }
      ],
      "name": "FondosRecibidos",
      "type": "event"
    },
    {
      "anonymous": false,
      "inputs": [
        {
          "indexed": true,
          "internalType": "address",
          "name": "direccionContrato",
          "type": "address"
        },
        {
          "indexed": true,
          "internalType": "address",
          "name": "prestatario",
          "type": "address"
        }
      ],
      "name": "NuevoPrestamoCursando",
      "type": "event"
    },
    {
      "anonymous": false,
      "inputs": [
        {
          "components": [
            {
              "internalType": "uint256",
              "name": "index",
              "type": "uint256"
            },
            {
              "internalType": "uint256",
              "name": "porcentajeInteres",
              "type": "uint256"
            },
            {
              "internalType": "uint256",
              "name": "cantidad",
              "type": "uint256"
            },
            {
              "internalType": "uint256",
              "name": "deudaTotal",
              "type": "uint256"
            },
            {
              "internalType": "uint256",
              "name": "cuotas",
              "type": "uint256"
            },
            {
              "internalType": "uint256",
              "name": "penalizacionImpago",
              "type": "uint256"
            }
          ],
          "indexed": false,
          "internalType": "struct PrestamosFactory.TipoContrato",
          "name": "tipoContrato",
          "type": "tuple"
        }
      ],
      "name": "PrestamoDefinido",
      "type": "event"
    },
    {
      "stateMutability": "payable",
      "type": "receive"
    },
    {
      "inputs": [],
      "name": "invertir",
      "outputs": [],
      "stateMutability": "payable",
      "type": "function"
    },
    {
      "inputs": [],
      "name": "getBalance",
      "outputs": [
        {
          "internalType": "uint256",
          "name": "",
          "type": "uint256"
        }
      ],
      "stateMutability": "view",
      "type": "function"
    },
    {
      "inputs": [],
      "name": "getClientes",
      "outputs": [
        {
          "internalType": "address[]",
          "name": "",
          "type": "address[]"
        }
      ],
      "stateMutability": "view",
      "type": "function"
    },
    {
      "inputs": [
        {
          "internalType": "uint256",
          "name": "amount",
          "type": "uint256"
        }
      ],
      "name": "recolectarFondos",
      "outputs": [],
      "stateMutability": "nonpayable",
      "type": "function"
    },
    {
      "inputs": [],
      "name": "verTiposContrato",
      "outputs": [
        {
          "components": [
            {
              "internalType": "uint256",
              "name": "index",
              "type": "uint256"
            },
            {
              "internalType": "uint256",
              "name": "porcentajeInteres",
              "type": "uint256"
            },
            {
              "internalType": "uint256",
              "name": "cantidad",
              "type": "uint256"
            },
            {
              "internalType": "uint256",
              "name": "deudaTotal",
              "type": "uint256"
            },
            {
              "internalType": "uint256",
              "name": "cuotas",
              "type": "uint256"
            },
            {
              "internalType": "uint256",
              "name": "penalizacionImpago",
              "type": "uint256"
            }
          ],
          "internalType": "struct PrestamosFactory.TipoContrato[]",
          "name": "",
          "type": "tuple[]"
        }
      ],
      "stateMutability": "view",
      "type": "function"
    },
    {
      "inputs": [
        {
          "internalType": "address",
          "name": "_prestatario",
          "type": "address"
        }
      ],
      "name": "verContratos",
      "outputs": [
        {
          "internalType": "contract PrestamoCursando[]",
          "name": "",
          "type": "address[]"
        }
      ],
      "stateMutability": "view",
      "type": "function"
    },
    {
      "inputs": [
        {
          "internalType": "uint8",
          "name": "_porcentajeInteres",
          "type": "uint8"
        },
        {
          "internalType": "uint256",
          "name": "_cantidad",
          "type": "uint256"
        },
        {
          "internalType": "uint8",
          "name": "_cuotas",
          "type": "uint8"
        },
        {
          "internalType": "uint8",
          "name": "_penalizacionImpago",
          "type": "uint8"
        }
      ],
      "name": "definirPrestamo",
      "outputs": [],
      "stateMutability": "nonpayable",
      "type": "function"
    },
    {
      "inputs": [
        {
          "internalType": "address payable",
          "name": "_prestatario",
          "type": "address"
        },
        {
          "internalType": "uint8",
          "name": "indexTipoContrato",
          "type": "uint8"
        }
      ],
      "name": "contratarPrestamo",
      "outputs": [],
      "stateMutability": "nonpayable",
      "type": "function"
    },
    {
      "inputs": [
        {
          "internalType": "address",
          "name": "user",
          "type": "address"
        },
        {
          "internalType": "uint256",
          "name": "index",
          "type": "uint256"
        }
      ],
      "name": "eliminarPrestamoFinalizado",
      "outputs": [],
      "stateMutability": "nonpayable",
      "type": "function"
    }
  ],
  "bytecode": "0x608060405234801561000f575f80fd5b50335f806101000a81548173ffffffffffffffffffffffffffffffffffffffff021916908373ffffffffffffffffffffffffffffffffffffffff1602179055506136ae8061005c5f395ff3fe60806040526004361062000095575f3560e01c806341206507116200006057806341206507146200014257806341cdeb79146200016f57806342b389a5146200019e578063812939ad14620001cb578063bf1014c514620001f857620000a7565b80628fe49d14620000ab578063033b7fa014620000b757806312065fe014620000e657806316a75182146200011557620000a7565b36620000a757620000a56200023b565b005b5f80fd5b620000b56200023b565b005b348015620000c3575f80fd5b50620000ce62000278565b604051620000dd919062001512565b60405180910390f35b348015620000f2575f80fd5b50620000fd62000395565b6040516200010c91906200154e565b60405180910390f35b34801562000121575f80fd5b506200014060048036038101906200013a91906200159c565b6200042c565b005b3480156200014e575f80fd5b506200016d600480360381019062000167919062001607565b62000530565b005b3480156200017b575f80fd5b5062000186620007dd565b604051620001959190620017c2565b60405180910390f35b348015620001aa575f80fd5b50620001c96004803603810190620001c3919062001813565b62000876565b005b348015620001d7575f80fd5b50620001f66004803603810190620001f091906200189a565b62000e7c565b005b34801562000204575f80fd5b506200022360048036038101906200021d9190620018df565b6200124c565b60405162000232919062001a2c565b60405180910390f35b7f64e71c76ee5c1bb24d4870ae0012c807f1472981764e000fa1b838dfe18501ff33346040516200026e92919062001a5f565b60405180910390a1565b60603373ffffffffffffffffffffffffffffffffffffffff165f8054906101000a900473ffffffffffffffffffffffffffffffffffffffff1673ffffffffffffffffffffffffffffffffffffffff16146200030a576040517f08c379a0000000000000000000000000000000000000000000000000000000008152600401620003019062001ae8565b60405180910390fd5b60038054806020026020016040519081016040528092919081815260200182805480156200038b57602002820191905f5260205f20905b815f9054906101000a900473ffffffffffffffffffffffffffffffffffffffff1673ffffffffffffffffffffffffffffffffffffffff168152602001906001019080831162000341575b5050505050905090565b5f3373ffffffffffffffffffffffffffffffffffffffff165f8054906101000a900473ffffffffffffffffffffffffffffffffffffffff1673ffffffffffffffffffffffffffffffffffffffff161462000426576040517f08c379a00000000000000000000000000000000000000000000000000000000081526004016200041d9062001ae8565b60405180910390fd5b47905090565b3373ffffffffffffffffffffffffffffffffffffffff165f8054906101000a900473ffffffffffffffffffffffffffffffffffffffff1673ffffffffffffffffffffffffffffffffffffffff1614620004bc576040517f08c379a0000000000000000000000000000000000000000000000000000000008152600401620004b39062001ae8565b60405180910390fd5b80471015620004c9575f80fd5b5f8054906101000a900473ffffffffffffffffffffffffffffffffffffffff1673ffffffffffffffffffffffffffffffffffffffff166108fc8290811502906040515f60405180830381858888f193505050501580156200052c573d5f803e3d5ffd5b5050565b3373ffffffffffffffffffffffffffffffffffffffff165f8054906101000a900473ffffffffffffffffffffffffffffffffffffffff1673ffffffffffffffffffffffffffffffffffffffff1614620005c0576040517f08c379a0000000000000000000000000000000000000000000000000000000008152600401620005b79062001ae8565b60405180910390fd5b5f8160ff1610158015620005d8575060648160ff1611155b6200061a576040517f08c379a0000000000000000000000000000000000000000000000000000000008152600401620006119062001b7c565b60405180910390fd5b5f8460ff161015801562000632575060648460ff1611155b62000674576040517f08c379a00000000000000000000000000000000000000000000000000000000081526004016200066b9062001c10565b60405180910390fd5b5f620006a26064620006938760ff1687620013dd90919063ffffffff16565b620013f490919063ffffffff16565b84620006af919062001c5d565b90505f6040518060c001604052805f81526020018760ff1681526020018681526020018381526020018560ff1681526020018460ff168152509050600181908060018154018082558091505060019003905f5260205f2090600602015f909190919091505f820151815f01556020820151816001015560408201518160020155606082015181600301556080820151816004015560a0820151816005015550506001808054905062000762919062001c97565b600180808054905062000776919062001c97565b815481106200078a576200078962001cd1565b5b905f5260205f2090600602015f01819055507f6fddbfd2fd816baefe3d0f8e8d1c78dc21f2a4a0cd1807f196800d204b407dc481604051620007cd919062001d83565b60405180910390a1505050505050565b60606001805480602002602001604051908101604052809291908181526020015f905b828210156200086d578382905f5260205f2090600602016040518060c00160405290815f8201548152602001600182015481526020016002820154815260200160038201548152602001600482015481526020016005820154815250508152602001906001019062000800565b50505050905090565b5f60025f8473ffffffffffffffffffffffffffffffffffffffff1673ffffffffffffffffffffffffffffffffffffffff1681526020019081526020015f208281548110620008c957620008c862001cd1565b5b905f5260205f20015f9054906101000a900473ffffffffffffffffffffffffffffffffffffffff1690505f8173ffffffffffffffffffffffffffffffffffffffff16633dd2dbad6040518163ffffffff1660e01b8152600401602060405180830381865afa1580156200093e573d5f803e3d5ffd5b505050506040513d601f19601f8201168201806040525081019062000964919062001dc4565b90506002808111156200097c576200097b62001df4565b5b81600281111562000992576200099162001df4565b5b14620009d5576040517f08c379a0000000000000000000000000000000000000000000000000000000008152600401620009cc9062001e6f565b60405180910390fd5b60025f8573ffffffffffffffffffffffffffffffffffffffff1673ffffffffffffffffffffffffffffffffffffffff1681526020019081526020015f20600160025f8773ffffffffffffffffffffffffffffffffffffffff1673ffffffffffffffffffffffffffffffffffffffff1681526020019081526020015f208054905062000a61919062001c97565b8154811062000a755762000a7462001cd1565b5b905f5260205f20015f9054906101000a900473ffffffffffffffffffffffffffffffffffffffff1660025f8673ffffffffffffffffffffffffffffffffffffffff1673ffffffffffffffffffffffffffffffffffffffff1681526020019081526020015f20848154811062000aef5762000aee62001cd1565b5b905f5260205f20015f6101000a81548173ffffffffffffffffffffffffffffffffffffffff021916908373ffffffffffffffffffffffffffffffffffffffff16021790555060025f8573ffffffffffffffffffffffffffffffffffffffff1673ffffffffffffffffffffffffffffffffffffffff1681526020019081526020015f20838154811062000b865762000b8562001cd1565b5b905f5260205f20015f9054906101000a900473ffffffffffffffffffffffffffffffffffffffff1673ffffffffffffffffffffffffffffffffffffffff166340a5737f846040518263ffffffff1660e01b815260040162000be891906200154e565b5f604051808303815f87803b15801562000c00575f80fd5b505af115801562000c13573d5f803e3d5ffd5b5050505060025f8573ffffffffffffffffffffffffffffffffffffffff1673ffffffffffffffffffffffffffffffffffffffff1681526020019081526020015f2080548062000c675762000c6662001e8f565b5b600190038181905f5260205f20015f6101000a81549073ffffffffffffffffffffffffffffffffffffffff021916905590555f60025f8673ffffffffffffffffffffffffffffffffffffffff1673ffffffffffffffffffffffffffffffffffffffff1681526020019081526020015f20805490500362000e76575f5b60038054905081101562000e2d578473ffffffffffffffffffffffffffffffffffffffff166003828154811062000d1f5762000d1e62001cd1565b5b905f5260205f20015f9054906101000a900473ffffffffffffffffffffffffffffffffffffffff1673ffffffffffffffffffffffffffffffffffffffff160362000e17576003600160038054905062000d79919062001c97565b8154811062000d8d5762000d8c62001cd1565b5b905f5260205f20015f9054906101000a900473ffffffffffffffffffffffffffffffffffffffff166003828154811062000dcc5762000dcb62001cd1565b5b905f5260205f20015f6101000a81548173ffffffffffffffffffffffffffffffffffffffff021916908373ffffffffffffffffffffffffffffffffffffffff16021790555062000e2d565b808062000e249062001ebc565b91505062000ce3565b50600380548062000e435762000e4262001e8f565b5b600190038181905f5260205f20015f6101000a81549073ffffffffffffffffffffffffffffffffffffffff021916905590555b50505050565b8173ffffffffffffffffffffffffffffffffffffffff163373ffffffffffffffffffffffffffffffffffffffff161462000eed576040517f08c379a000000000000000000000000000000000000000000000000000000000815260040162000ee49062001f7c565b60405180910390fd5b5f60018260ff168154811062000f085762000f0762001cd1565b5b905f5260205f2090600602016040518060c00160405290815f8201548152602001600182015481526020016002820154815260200160038201548152602001600482015481526020016005820154815250509050806040015147101562000fa6576040517f08c379a000000000000000000000000000000000000000000000000000000000815260040162000f9d9062001fea565b60405180910390fd5b5f60025f8573ffffffffffffffffffffffffffffffffffffffff1673ffffffffffffffffffffffffffffffffffffffff1681526020019081526020015f2080549050036200104f57600383908060018154018082558091505060019003905f5260205f20015f9091909190916101000a81548173ffffffffffffffffffffffffffffffffffffffff021916908373ffffffffffffffffffffffffffffffffffffffff1602179055505b5f60025f8573ffffffffffffffffffffffffffffffffffffffff1673ffffffffffffffffffffffffffffffffffffffff1681526020019081526020015f208054905090505f81855f8054906101000a900473ffffffffffffffffffffffffffffffffffffffff168560800151866040015187606001518860a00151604051620010d8906200140b565b620010ea979695949392919062002041565b604051809103905ff08015801562001104573d5f803e3d5ffd5b5090508473ffffffffffffffffffffffffffffffffffffffff168173ffffffffffffffffffffffffffffffffffffffff167fc7b7112182249981bbc0b19d529036fdb655a5efeff09cab01cce30a907a3a4c60405160405180910390a360025f8673ffffffffffffffffffffffffffffffffffffffff1673ffffffffffffffffffffffffffffffffffffffff1681526020019081526020015f2081908060018154018082558091505060019003905f5260205f20015f9091909190916101000a81548173ffffffffffffffffffffffffffffffffffffffff021916908373ffffffffffffffffffffffffffffffffffffffff1602179055508473ffffffffffffffffffffffffffffffffffffffff166108fc846040015190811502906040515f60405180830381858888f1935050505015801562001244573d5f803e3d5ffd5b505050505050565b60605f8054906101000a900473ffffffffffffffffffffffffffffffffffffffff1673ffffffffffffffffffffffffffffffffffffffff163373ffffffffffffffffffffffffffffffffffffffff161480620012d357508173ffffffffffffffffffffffffffffffffffffffff163373ffffffffffffffffffffffffffffffffffffffff16145b62001315576040517f08c379a00000000000000000000000000000000000000000000000000000000081526004016200130c906200210a565b60405180910390fd5b60025f8373ffffffffffffffffffffffffffffffffffffffff1673ffffffffffffffffffffffffffffffffffffffff1681526020019081526020015f20805480602002602001604051908101604052809291908181526020018280548015620013d157602002820191905f5260205f20905b815f9054906101000a900473ffffffffffffffffffffffffffffffffffffffff1673ffffffffffffffffffffffffffffffffffffffff168152602001906001019080831162001387575b50505050509050919050565b5f8183620013ec91906200212a565b905092915050565b5f8183620014039190620021a1565b905092915050565b6114a080620021d983390190565b5f81519050919050565b5f82825260208201905092915050565b5f819050602082019050919050565b5f73ffffffffffffffffffffffffffffffffffffffff82169050919050565b5f6200146d8262001442565b9050919050565b6200147f8162001461565b82525050565b5f62001492838362001474565b60208301905092915050565b5f602082019050919050565b5f620014b68262001419565b620014c2818562001423565b9350620014cf8362001433565b805f5b8381101562001505578151620014e9888262001485565b9750620014f6836200149e565b925050600181019050620014d2565b5085935050505092915050565b5f6020820190508181035f8301526200152c8184620014aa565b905092915050565b5f819050919050565b620015488162001534565b82525050565b5f602082019050620015635f8301846200153d565b92915050565b5f80fd5b620015788162001534565b811462001583575f80fd5b50565b5f8135905062001596816200156d565b92915050565b5f60208284031215620015b457620015b362001569565b5b5f620015c38482850162001586565b91505092915050565b5f60ff82169050919050565b620015e381620015cc565b8114620015ee575f80fd5b50565b5f813590506200160181620015d8565b92915050565b5f805f806080858703121562001622576200162162001569565b5b5f6200163187828801620015f1565b9450506020620016448782880162001586565b93505060406200165787828801620015f1565b92505060606200166a87828801620015f1565b91505092959194509250565b5f81519050919050565b5f82825260208201905092915050565b5f819050602082019050919050565b620016aa8162001534565b82525050565b60c082015f820151620016c65f8501826200169f565b506020820151620016db60208501826200169f565b506040820151620016f060408501826200169f565b5060608201516200170560608501826200169f565b5060808201516200171a60808501826200169f565b5060a08201516200172f60a08501826200169f565b50505050565b5f620017428383620016b0565b60c08301905092915050565b5f602082019050919050565b5f620017668262001676565b62001772818562001680565b93506200177f8362001690565b805f5b83811015620017b557815162001799888262001735565b9750620017a6836200174e565b92505060018101905062001782565b5085935050505092915050565b5f6020820190508181035f830152620017dc81846200175a565b905092915050565b620017ef8162001461565b8114620017fa575f80fd5b50565b5f813590506200180d81620017e4565b92915050565b5f80604083850312156200182c576200182b62001569565b5b5f6200183b85828601620017fd565b92505060206200184e8582860162001586565b9150509250929050565b5f620018648262001442565b9050919050565b620018768162001858565b811462001881575f80fd5b50565b5f8135905062001894816200186b565b92915050565b5f8060408385031215620018b357620018b262001569565b5b5f620018c28582860162001884565b9250506020620018d585828601620015f1565b9150509250929050565b5f60208284031215620018f757620018f662001569565b5b5f6200190684828501620017fd565b91505092915050565b5f81519050919050565b5f82825260208201905092915050565b5f819050602082019050919050565b5f819050919050565b5f620019616200195b620019558462001442565b62001938565b62001442565b9050919050565b5f620019748262001941565b9050919050565b5f620019878262001968565b9050919050565b62001999816200197b565b82525050565b5f620019ac83836200198e565b60208301905092915050565b5f602082019050919050565b5f620019d0826200190f565b620019dc818562001919565b9350620019e98362001929565b805f5b8381101562001a1f57815162001a0388826200199f565b975062001a1083620019b8565b925050600181019050620019ec565b5085935050505092915050565b5f6020820190508181035f83015262001a468184620019c4565b905092915050565b62001a598162001461565b82525050565b5f60408201905062001a745f83018562001a4e565b62001a8360208301846200153d565b9392505050565b5f82825260208201905092915050565b7f4f6e6c79204f776e6572000000000000000000000000000000000000000000005f82015250565b5f62001ad0600a8362001a8a565b915062001add8262001a9a565b602082019050919050565b5f6020820190508181035f83015262001b018162001ac2565b9050919050565b7f4c612070656e616c697a6163696f6e207469656e65207175652073657220756e5f8201527f20706f7263656e74616a65000000000000000000000000000000000000000000602082015250565b5f62001b64602b8362001a8a565b915062001b718262001b08565b604082019050919050565b5f6020820190508181035f83015262001b958162001b56565b9050919050565b7f456c20696e7465726573207469656e65207175652073657220756e20706f72635f8201527f656e74616a650000000000000000000000000000000000000000000000000000602082015250565b5f62001bf860268362001a8a565b915062001c058262001b9c565b604082019050919050565b5f6020820190508181035f83015262001c298162001bea565b9050919050565b7f4e487b71000000000000000000000000000000000000000000000000000000005f52601160045260245ffd5b5f62001c698262001534565b915062001c768362001534565b925082820190508082111562001c915762001c9062001c30565b5b92915050565b5f62001ca38262001534565b915062001cb08362001534565b925082820390508181111562001ccb5762001cca62001c30565b5b92915050565b7f4e487b71000000000000000000000000000000000000000000000000000000005f52603260045260245ffd5b60c082015f82015162001d145f8501826200169f565b50602082015162001d2960208501826200169f565b50604082015162001d3e60408501826200169f565b50606082015162001d5360608501826200169f565b50608082015162001d6860808501826200169f565b5060a082015162001d7d60a08501826200169f565b50505050565b5f60c08201905062001d985f83018462001cfe565b92915050565b6003811062001dab575f80fd5b50565b5f8151905062001dbe8162001d9e565b92915050565b5f6020828403121562001ddc5762001ddb62001569565b5b5f62001deb8482850162001dae565b91505092915050565b7f4e487b71000000000000000000000000000000000000000000000000000000005f52602160045260245ffd5b7f436f6e747261746f206e6f2066696e616c697a61646f000000000000000000005f82015250565b5f62001e5760168362001a8a565b915062001e648262001e21565b602082019050919050565b5f6020820190508181035f83015262001e888162001e49565b9050919050565b7f4e487b71000000000000000000000000000000000000000000000000000000005f52603160045260245ffd5b5f62001ec88262001534565b91507fffffffffffffffffffffffffffffffffffffffffffffffffffffffffffffffff820362001efd5762001efc62001c30565b5b600182019050919050565b7f4e6f20736520707565646520636f6e74726174617220656e206e6f6d627265205f8201527f6465206f74726f73000000000000000000000000000000000000000000000000602082015250565b5f62001f6460288362001a8a565b915062001f718262001f08565b604082019050919050565b5f6020820190508181035f83015262001f958162001f56565b9050919050565b7f5072657374616d6f206e6f20646973706f6e69626c65000000000000000000005f82015250565b5f62001fd260168362001a8a565b915062001fdf8262001f9c565b602082019050919050565b5f6020820190508181035f830152620020038162001fc4565b9050919050565b5f620020168262001941565b9050919050565b5f62002029826200200a565b9050919050565b6200203b816200201d565b82525050565b5f60e082019050620020565f83018a6200153d565b62002065602083018962002030565b62002074604083018862002030565b6200208360608301876200153d565b6200209260808301866200153d565b620020a160a08301856200153d565b620020b060c08301846200153d565b98975050505050505050565b7f546f7020536563726574000000000000000000000000000000000000000000005f82015250565b5f620020f2600a8362001a8a565b9150620020ff82620020bc565b602082019050919050565b5f6020820190508181035f8301526200212381620020e4565b9050919050565b5f620021368262001534565b9150620021438362001534565b9250828202620021538162001534565b915082820484148315176200216d576200216c62001c30565b5b5092915050565b7f4e487b71000000000000000000000000000000000000000000000000000000005f52601260045260245ffd5b5f620021ad8262001534565b9150620021ba8362001534565b925082620021cd57620021cc62002174565b5b82820490509291505056fe608060405234801562000010575f80fd5b50604051620014a0380380620014a0833981810160405281019062000036919062000258565b865f819055506001805f6101000a81548160ff0219169083600281111562000063576200006262000306565b5b0217905550856001806101000a81548173ffffffffffffffffffffffffffffffffffffffff021916908373ffffffffffffffffffffffffffffffffffffffff1602179055508460025f6101000a81548173ffffffffffffffffffffffffffffffffffffffff021916908373ffffffffffffffffffffffffffffffffffffffff1602179055503360035f6101000a81548173ffffffffffffffffffffffffffffffffffffffff021916908373ffffffffffffffffffffffffffffffffffffffff16021790555083600481905550826005819055508160068190555080600881905550620001546200016e60201b60201c565b600781905550426009819055505050505050505062000397565b5f60016004540362000185576006549050620001a1565b6200019e600454600654620001a460201b90919060201c565b90505b90565b5f8183620001b3919062000360565b905092915050565b5f80fd5b5f819050919050565b620001d381620001bf565b8114620001de575f80fd5b50565b5f81519050620001f181620001c8565b92915050565b5f73ffffffffffffffffffffffffffffffffffffffff82169050919050565b5f6200022282620001f7565b9050919050565b620002348162000216565b81146200023f575f80fd5b50565b5f81519050620002528162000229565b92915050565b5f805f805f805f60e0888a031215620002765762000275620001bb565b5b5f620002858a828b01620001e1565b9750506020620002988a828b0162000242565b9650506040620002ab8a828b0162000242565b9550506060620002be8a828b01620001e1565b9450506080620002d18a828b01620001e1565b93505060a0620002e48a828b01620001e1565b92505060c0620002f78a828b01620001e1565b91505092959891949750929550565b7f4e487b71000000000000000000000000000000000000000000000000000000005f52602160045260245ffd5b7f4e487b71000000000000000000000000000000000000000000000000000000005f52601260045260245ffd5b5f6200036c82620001bf565b91506200037983620001bf565b9250826200038c576200038b62000333565b5b828204905092915050565b6110fb80620003a55f395ff3fe608060405260043610610073575f3560e01c806340a5737f1161004d57806340a5737f146101045780635fbfcf3b1461012c5780638c46928914610136578063b5413ff81461014c57610082565b80631d3eb535146100865780633cc2d80e146100b05780633dd2dbad146100da57610082565b3661008257610080610174565b005b5f80fd5b348015610091575f80fd5b5061009a61036d565b6040516100a79190610b8c565b60405180910390f35b3480156100bb575f80fd5b506100c4610523565b6040516100d19190610bb5565b60405180910390f35b3480156100e5575f80fd5b506100ee610528565b6040516100fb9190610bdd565b60405180910390f35b34801561010f575f80fd5b5061012a60048036038101906101259190610c24565b61053d565b005b610134610174565b005b348015610141575f80fd5b5061014a6105d5565b005b348015610157575f80fd5b50610172600480360381019061016d9190610c24565b6107b0565b005b60018054906101000a900473ffffffffffffffffffffffffffffffffffffffff1673ffffffffffffffffffffffffffffffffffffffff163373ffffffffffffffffffffffffffffffffffffffff1614610202576040517f08c379a00000000000000000000000000000000000000000000000000000000081526004016101f990610ca9565b60405180910390fd5b6007543414610246576040517f08c379a000000000000000000000000000000000000000000000000000000000815260040161023d90610d11565b60405180910390fd5b6001600281111561025a57610259610a4f565b5b60015f9054906101000a900460ff16600281111561027b5761027a610a4f565b5b146102bb576040517f08c379a00000000000000000000000000000000000000000000000000000000081526004016102b290610d79565b60405180910390fd5b5f60015f6101000a81548160ff021916908360028111156102df576102de610a4f565b5b021790555060075460065f8282546102f79190610dc4565b9250508190555060045f81548092919061031090610df7565b919050555060016004540361032e57610327610818565b6007819055505b5f6004540361036257600260015f6101000a81548160ff0219169083600281111561035c5761035b610a4f565b5b02179055505b61036b346107b0565b565b610375610971565b60025f9054906101000a900473ffffffffffffffffffffffffffffffffffffffff1673ffffffffffffffffffffffffffffffffffffffff163373ffffffffffffffffffffffffffffffffffffffff16148061041b575060018054906101000a900473ffffffffffffffffffffffffffffffffffffffff1673ffffffffffffffffffffffffffffffffffffffff163373ffffffffffffffffffffffffffffffffffffffff16145b61045a576040517f08c379a000000000000000000000000000000000000000000000000000000000815260040161045190610e68565b60405180910390fd5b5f6040518061014001604052803073ffffffffffffffffffffffffffffffffffffffff1681526020015f54815260200160018054906101000a900473ffffffffffffffffffffffffffffffffffffffff1673ffffffffffffffffffffffffffffffffffffffff16815260200160015f9054906101000a900460ff1660028111156104e7576104e6610a4f565b5b81526020016005548152602001600654815260200160075481526020016004548152602001600854815260200160095481525090508091505090565b600a81565b5f60015f9054906101000a900460ff16905090565b3373ffffffffffffffffffffffffffffffffffffffff1660035f9054906101000a900473ffffffffffffffffffffffffffffffffffffffff1673ffffffffffffffffffffffffffffffffffffffff16146105cc576040517f08c379a00000000000000000000000000000000000000000000000000000000081526004016105c390610ed0565b60405180910390fd5b805f8190555050565b3373ffffffffffffffffffffffffffffffffffffffff1660025f9054906101000a900473ffffffffffffffffffffffffffffffffffffffff1673ffffffffffffffffffffffffffffffffffffffff1614610664576040517f08c379a000000000000000000000000000000000000000000000000000000000815260040161065b90610f38565b60405180910390fd5b600a600954426106749190610dc4565b10156106b5576040517f08c379a00000000000000000000000000000000000000000000000000000000081526004016106ac90610fa0565b60405180910390fd5b600160028111156106c9576106c8610a4f565b5b60015f9054906101000a900460ff1660028111156106ea576106e9610a4f565b5b036106fc576106f761084a565b6107a7565b5f600281111561070f5761070e610a4f565b5b60015f9054906101000a900460ff1660028111156107305761072f610a4f565b5b03610763576001805f6101000a81548160ff0219169083600281111561075957610758610a4f565b5b02179055506107a6565b60028081111561077657610775610a4f565b5b60015f9054906101000a900460ff16600281111561079757610796610a4f565b5b036107a5576107a461089b565b5b5b5b42600981905550565b60035f9054906101000a900473ffffffffffffffffffffffffffffffffffffffff1673ffffffffffffffffffffffffffffffffffffffff166108fc8290811502906040515f60405180830381858888f19350505050158015610814573d5f803e3d5ffd5b5050565b5f60016004540361082d576006549050610847565b61084460045460065461094790919063ffffffff16565b90505b90565b610874606461086660085460065461095c90919063ffffffff16565b61094790919063ffffffff16565b60065f8282546108849190610fbe565b92505081905550610893610818565b600781905550565b60035f9054906101000a900473ffffffffffffffffffffffffffffffffffffffff1673ffffffffffffffffffffffffffffffffffffffff166342b389a560018054906101000a900473ffffffffffffffffffffffffffffffffffffffff165f546040518363ffffffff1660e01b8152600401610918929190611000565b5f604051808303815f87803b15801561092f575f80fd5b505af1158015610941573d5f803e3d5ffd5b50505050565b5f81836109549190611054565b905092915050565b5f81836109699190611084565b905092915050565b6040518061014001604052805f73ffffffffffffffffffffffffffffffffffffffff1681526020015f81526020015f73ffffffffffffffffffffffffffffffffffffffff1681526020015f60028111156109ce576109cd610a4f565b5b81526020015f81526020015f81526020015f81526020015f81526020015f81526020015f81525090565b5f73ffffffffffffffffffffffffffffffffffffffff82169050919050565b5f610a21826109f8565b9050919050565b610a3181610a17565b82525050565b5f819050919050565b610a4981610a37565b82525050565b7f4e487b71000000000000000000000000000000000000000000000000000000005f52602160045260245ffd5b60038110610a8d57610a8c610a4f565b5b50565b5f819050610a9d82610a7c565b919050565b5f610aac82610a90565b9050919050565b610abc81610aa2565b82525050565b61014082015f820151610ad75f850182610a28565b506020820151610aea6020850182610a40565b506040820151610afd6040850182610a28565b506060820151610b106060850182610ab3565b506080820151610b236080850182610a40565b5060a0820151610b3660a0850182610a40565b5060c0820151610b4960c0850182610a40565b5060e0820151610b5c60e0850182610a40565b50610100820151610b71610100850182610a40565b50610120820151610b86610120850182610a40565b50505050565b5f61014082019050610ba05f830184610ac2565b92915050565b610baf81610a37565b82525050565b5f602082019050610bc85f830184610ba6565b92915050565b610bd781610aa2565b82525050565b5f602082019050610bf05f830184610bce565b92915050565b5f80fd5b610c0381610a37565b8114610c0d575f80fd5b50565b5f81359050610c1e81610bfa565b92915050565b5f60208284031215610c3957610c38610bf6565b5b5f610c4684828501610c10565b91505092915050565b5f82825260208201905092915050565b7f4f6e6c7920626f72726f776572000000000000000000000000000000000000005f82015250565b5f610c93600d83610c4f565b9150610c9e82610c5f565b602082019050919050565b5f6020820190508181035f830152610cc081610c87565b9050919050565b7f53656e6420657861637420646562742076616c756500000000000000000000005f82015250565b5f610cfb601583610c4f565b9150610d0682610cc7565b602082019050919050565b5f6020820190508181035f830152610d2881610cef565b9050919050565b7f5061796d656e7420706572696f64206e6f74206f70656e0000000000000000005f82015250565b5f610d63601783610c4f565b9150610d6e82610d2f565b602082019050919050565b5f6020820190508181035f830152610d9081610d57565b9050919050565b7f4e487b71000000000000000000000000000000000000000000000000000000005f52601160045260245ffd5b5f610dce82610a37565b9150610dd983610a37565b9250828203905081811115610df157610df0610d97565b5b92915050565b5f610e0182610a37565b91505f8203610e1357610e12610d97565b5b600182039050919050565b7f546f7020536563726574000000000000000000000000000000000000000000005f82015250565b5f610e52600a83610c4f565b9150610e5d82610e1e565b602082019050919050565b5f6020820190508181035f830152610e7f81610e46565b9050919050565b7f4f6e6c7920636f6e747261637420466163746f727900000000000000000000005f82015250565b5f610eba601583610c4f565b9150610ec582610e86565b602082019050919050565b5f6020820190508181035f830152610ee781610eae565b9050919050565b7f4f6e6c792066696e616e6369616c20656e7469747900000000000000000000005f82015250565b5f610f22601583610c4f565b9150610f2d82610eee565b602082019050919050565b5f6020820190508181035f830152610f4f81610f16565b9050919050565b7f446561646c696e6520686173206e6f74207965742065787069726564000000005f82015250565b5f610f8a601c83610c4f565b9150610f9582610f56565b602082019050919050565b5f6020820190508181035f830152610fb781610f7e565b9050919050565b5f610fc882610a37565b9150610fd383610a37565b9250828201905080821115610feb57610fea610d97565b5b92915050565b610ffa81610a17565b82525050565b5f6040820190506110135f830185610ff1565b6110206020830184610ba6565b9392505050565b7f4e487b71000000000000000000000000000000000000000000000000000000005f52601260045260245ffd5b5f61105e82610a37565b915061106983610a37565b92508261107957611078611027565b5b828204905092915050565b5f61108e82610a37565b915061109983610a37565b92508282026110a781610a37565b915082820484148315176110be576110bd610d97565b5b509291505056fea264697066735822122069262415373da4b727b9d347225811e3bafa51dfea2e653b3799ecec36fc172064736f6c63430008140033a264697066735822122087cc440efb4f6ef9b466d0639215a2d4bfd482d6d30dac5dc880769173bff6a664736f6c63430008140033",
  "immutableReferences": {},
  "source": "// SPDX-License-Identifier: GPL-3.0\r\npragma solidity >=0.8.0 <0.9.0;\r\nimport \"@openzeppelin/contracts/utils/math/SafeMath.sol\";\r\n//SafeMath.sol no aparece con npm install, importado manualmente \r\ncontract PrestamosFactory {\r\n\r\n    using SafeMath for uint256;\r\n\r\n    address payable private owner;\r\n    //Posibles prestamos a contratar\r\n    TipoContrato[] tiposContrato;\r\n    \r\n    mapping(address => PrestamoCursando[])  prestamosCursando;\r\n    address[] clientes;\r\n\r\n    struct TipoContrato {\r\n        uint256 index;\r\n        uint256 porcentajeInteres; \r\n        uint256 cantidad; \r\n        uint256 deudaTotal;\r\n        uint256 cuotas;\r\n        uint256 penalizacionImpago;\r\n    }\r\n    \r\n    event PrestamoDefinido(TipoContrato tipoContrato);\r\n    event NuevoPrestamoCursando(address indexed direccionContrato, address indexed prestatario);\r\n    event FondosRecibidos(address direccion,uint256 cantidad);\r\n\r\n    modifier onlyOwner() {\r\n        require(owner == msg.sender,\"Only Owner\");\r\n         _;\r\n    }\r\n    \r\n    constructor(){\r\n        owner = payable(msg.sender);\r\n    }\r\n\r\n    receive() external payable {\r\n        invertir();\r\n    }\r\n\r\n    function invertir() public payable {\r\n        emit FondosRecibidos(msg.sender, msg.value);\r\n    }\r\n\r\n    function getBalance() public view onlyOwner returns(uint256) {\r\n    \r\n        return address(this).balance;\r\n    }\r\n    function getClientes() public view onlyOwner  returns(address[] memory) {\r\n        return clientes;\r\n\r\n    }\r\n\r\n    function recolectarFondos(uint256 amount) public  onlyOwner {\r\n        require(address(this).balance >= amount);\r\n        owner.transfer(amount);\r\n\r\n    }\r\n\r\n    function verTiposContrato() public view returns (TipoContrato[] memory) {\r\n        return tiposContrato;\r\n    }\r\n\r\n\r\n    function verContratos(address _prestatario) public view returns (PrestamoCursando[] memory){\r\n        require((msg.sender == owner)||(msg.sender == _prestatario), \"Top Secret\");\r\n        return (prestamosCursando[_prestatario]);\r\n    }\r\n\r\n\r\n    function definirPrestamo(uint8 _porcentajeInteres, uint256 _cantidad, uint8 _cuotas, uint8 _penalizacionImpago) public onlyOwner {\r\n\r\n        require(_penalizacionImpago >= 0 && _penalizacionImpago <= 100, \"La penalizacion tiene que ser un porcentaje\");\r\n        require(_porcentajeInteres >= 0 && _porcentajeInteres <= 100, \"El interes tiene que ser un porcentaje\");\r\n\r\n\r\n        uint256 _deudaTotal = _cantidad + _cantidad.mul(_porcentajeInteres).div(100);\r\n\r\n        TipoContrato memory nuevoPrestamo = TipoContrato({\r\n            index: 0 ,\r\n            porcentajeInteres: _porcentajeInteres,\r\n            cantidad: _cantidad,\r\n            deudaTotal: _deudaTotal,\r\n            cuotas: _cuotas,\r\n            penalizacionImpago: _penalizacionImpago\r\n        });\r\n\r\n        tiposContrato.push(nuevoPrestamo);\r\n        //Guardo el index dentro del Objeto prstamo para mayor facilidad de acceso \r\n        tiposContrato[tiposContrato.length - 1].index = tiposContrato.length-1;\r\n        emit PrestamoDefinido(nuevoPrestamo);\r\n    \r\n    }\r\n\r\n\r\n\r\n   \r\n    function contratarPrestamo(address payable _prestatario, uint8 indexTipoContrato) public {\r\n\r\n        require(msg.sender == _prestatario, \"No se puede contratar en nombre de otros\");\r\n\r\n        TipoContrato memory tipoPrestamo = tiposContrato[indexTipoContrato];\r\n        require(address(this).balance >= tipoPrestamo.cantidad,\"Prestamo no disponible\");\r\n\r\n        //Compruebo si la cuenta tiene otro conrtrato contratado\r\n        if(prestamosCursando[_prestatario].length == 0){\r\n            clientes.push(_prestatario);\r\n        }\r\n        //Guardo index para faciltar acceso\r\n        uint256 _indexNuevoPrestamo = prestamosCursando[_prestatario].length;\r\n        // Genero un nuevo contrato Prestamo asociado a la direccin msg.sender\r\n        PrestamoCursando newPrestamo = new PrestamoCursando(_indexNuevoPrestamo, _prestatario, owner, tipoPrestamo.cuotas, tipoPrestamo.cantidad,\r\n                                                            tipoPrestamo.deudaTotal, tipoPrestamo.penalizacionImpago);\r\n\r\n        //Enviar dinero a usuario\r\n        emit NuevoPrestamoCursando(address(newPrestamo), _prestatario);                                                \r\n        prestamosCursando[_prestatario].push(newPrestamo);\r\n        _prestatario.transfer(tipoPrestamo.cantidad);\r\n\r\n    }\r\n\r\n    function  eliminarPrestamoFinalizado(address user, uint index) external {\r\n        PrestamoCursando eliminar = prestamosCursando[user][index];\r\n        PrestamoCursando.State state = PrestamoCursando(eliminar).mostrarEstado();\r\n        require( state == PrestamoCursando.State.FINALIZADO , \"Contrato no finalizado\");\r\n        //Se copia el ultimo elemento del array y se le cambia el ndice\r\n        prestamosCursando[user][index] = prestamosCursando[user][prestamosCursando[user].length - 1];\r\n        prestamosCursando[user][index].setIndex(index);\r\n        //Se elimina el elemento copiado\r\n        prestamosCursando[user].pop();\r\n\r\n        //En caso de que el cliente deje de tener contratos con nostros le eliminamos de la lista de clientes\r\n        if( prestamosCursando[user].length == 0){\r\n            for(uint i = 0 ; i < clientes.length; i ++ ) {\r\n                if (clientes[i] == user) {\r\n                    clientes[i] = clientes[clientes.length - 1];\r\n                    break;\r\n                }\r\n            }\r\n            clientes.pop();\r\n        }\r\n\r\n    }\r\n    \r\n    }\r\n\r\ncontract PrestamoCursando {\r\n\r\n    using SafeMath for uint256;\r\n\r\n    uint index;\r\n    enum State { PAGADO, ABIERTO, FINALIZADO }\r\n    State state;\r\n    address prestatario;\r\n    address entidadFinanciera;\r\n    address payable prestamosFactory;\r\n    uint256 cuotasRestantes;\r\n    uint256 cantidadPrestada;\r\n    uint256 deudaRestante;\r\n    uint256 cuotaMensual;\r\n    uint256 penalizacion;\r\n    uint256 ultimoCheckeo;\r\n\r\n    struct InfoContrato {\r\n        address _direccion;\r\n        uint256 _index;\r\n        address _prestatario;\r\n        State _state;\r\n        uint256 _cantidadPrestada; \r\n        uint256 _deudaRestante;\r\n        uint256 _cuotaMensual;\r\n        uint256 _cuotasRestantes;\r\n        uint256 _penalizacionImpago;\r\n        uint256 _ultimoCheckeo;\r\n    }\r\n\r\n    //2629800 = 1 MES;\r\n    uint256 public constant PLAZO = 10;\r\n\r\n    modifier onlyFinancialEntity() {\r\n        require(entidadFinanciera == msg.sender,\"Only financial entity\");\r\n         _;\r\n    }\r\n    \r\n    modifier onlyContractFactory() {\r\n        require(prestamosFactory == msg.sender,\"Only contract Factory\");\r\n         _;\r\n    }\r\n\r\n    modifier hasBeenOneMonth() {\r\n        require(block.timestamp - ultimoCheckeo >= PLAZO, \"Deadline has not yet expired\" );\r\n        _;\r\n    }\r\n\r\n    constructor(uint256 _index, address _prestatario, address _entidad, uint256 _cuotasRestantes, uint256 _cantidad, uint256 _deudaTotal, uint256 _penalizacion){\r\n        index = _index;\r\n        state = State.ABIERTO;\r\n        prestatario = _prestatario;\r\n        entidadFinanciera = _entidad;\r\n        prestamosFactory = payable(msg.sender);\r\n        cuotasRestantes = _cuotasRestantes;\r\n        cantidadPrestada = _cantidad;\r\n        deudaRestante = _deudaTotal;\r\n        penalizacion = _penalizacion;\r\n        cuotaMensual = calculoCuotaMensual();\r\n        ultimoCheckeo = block.timestamp;\r\n    }\r\n\r\n    function mostrarInfo() external view returns (InfoContrato memory){\r\n        require((msg.sender == entidadFinanciera || msg.sender == prestatario), \"Top Secret\");\r\n        \r\n        InfoContrato memory infoContrato = InfoContrato({\r\n            _direccion: address(this),\r\n            _index: index,\r\n            _prestatario: prestatario,\r\n            _state: state,\r\n            _cantidadPrestada: cantidadPrestada,\r\n            _deudaRestante: deudaRestante,\r\n            _cuotaMensual: cuotaMensual,\r\n            _cuotasRestantes: cuotasRestantes,\r\n            _penalizacionImpago: penalizacion,\r\n            _ultimoCheckeo: ultimoCheckeo\r\n        });\r\n    \r\n        return infoContrato;\r\n    }\r\n\r\n    function mostrarEstado() external view returns (State) {\r\n        return state;\r\n    }\r\n\r\n\r\n    function setIndex(uint _index) external onlyContractFactory {\r\n        index = _index;\r\n    }\r\n\r\n    function calculoCuotaMensual() private view returns (uint256){\r\n        //Debido a problemas con el tratamiento de decimales de solidity puede resultar el caso que\r\n        // deudarestante/cuotasrestantes no de un numero entero\r\n        //Esto implica que quede deuda despues de pagar todas las cuotas por lo que este resto se aade a la cuota final\r\n        if(cuotasRestantes == 1) {\r\n            return  deudaRestante;\r\n            }\r\n        else {\r\n            return deudaRestante.div(cuotasRestantes);\r\n        }\r\n       \r\n    }\r\n\r\n    function checkeoMensual() onlyFinancialEntity hasBeenOneMonth public {\r\n        \r\n        if(state == State.ABIERTO){\r\n            penalizarPrestamo();\r\n        }\r\n        else if(state == State.PAGADO){\r\n            state = State.ABIERTO;\r\n        }\r\n        else if (state == State.FINALIZADO){\r\n            eliminarContratoFinalizado();\r\n        }\r\n\r\n        ultimoCheckeo = block.timestamp;\r\n  \r\n    }\r\n\r\n    function eliminarContratoFinalizado() private {\r\n        PrestamosFactory(prestamosFactory).eliminarPrestamoFinalizado(prestatario, index); \r\n    }\r\n\r\n    //Numero de cuotas se mantiene\r\n    function penalizarPrestamo() private {\r\n        deudaRestante += deudaRestante.mul(penalizacion).div(100); \r\n        cuotaMensual = calculoCuotaMensual();\r\n    }\r\n\r\n    receive() external payable {\r\n        pagarMensualidad();\r\n    }\r\n\r\n    function pagarMensualidad() payable public {\r\n        require(msg.sender == prestatario, \"Only borrower\");\r\n        require(msg.value == cuotaMensual, \"Send exact debt value\");\r\n        require(state == State.ABIERTO, \"Payment period not open\");\r\n       \r\n        state = State.PAGADO;\r\n        deudaRestante -= cuotaMensual;\r\n        cuotasRestantes--;\r\n\r\n       \r\n        if(cuotasRestantes == 1){\r\n            cuotaMensual = calculoCuotaMensual();\r\n         }\r\n\r\n        if(cuotasRestantes == 0){\r\n         state = State.FINALIZADO;\r\n        }\r\n        transferirFondosAFactory(msg.value);\r\n        \r\n    }\r\n\r\n    //Por seguridad se pone a public para evitar fondos bloqueados en este contrato.\r\n    function transferirFondosAFactory(uint256 _amount) public {\r\n        prestamosFactory.transfer(_amount);\r\n    }\r\n    \r\n\r\n\r\n}",
  "sourcePath": "C:\\Users\\akila\\Desktop\\PRESTAMOS FACTORY\\myApp\\truffle\\contracts\\PRESTAMOS_FACTORY.sol",
  "compiler": {
    "name": "solc",
    "version": "0.8.20+commit.a1b79de6.Emscripten.clang"
  },
  "schemaVersion": "3.4.16",
  "updatedAt": "2023-12-11T21:09:37.184Z",
  "devdoc": {
    "kind": "dev",
    "methods": {},
    "version": 1
  },
  "userdoc": {
    "kind": "user",
    "methods": {},
    "version": 1
  }
}