{
  "contractName": "PrestamoCursando",
  "abi": [
    {
      "inputs": [
        {
          "internalType": "uint256",
          "name": "_index",
          "type": "uint256"
        },
        {
          "internalType": "address",
          "name": "_prestatario",
          "type": "address"
        },
        {
          "internalType": "address",
          "name": "_entidad",
          "type": "address"
        },
        {
          "internalType": "uint256",
          "name": "_cuotasRestantes",
          "type": "uint256"
        },
        {
          "internalType": "uint256",
          "name": "_cantidad",
          "type": "uint256"
        },
        {
          "internalType": "uint256",
          "name": "_deudaTotal",
          "type": "uint256"
        },
        {
          "internalType": "uint256",
          "name": "_penalizacion",
          "type": "uint256"
        }
      ],
      "stateMutability": "nonpayable",
      "type": "constructor"
    },
    {
      "inputs": [],
      "name": "PLAZO",
      "outputs": [
        {
          "internalType": "uint256",
          "name": "",
          "type": "uint256"
        }
      ],
      "stateMutability": "view",
      "type": "function"
    },
    {
      "stateMutability": "payable",
      "type": "receive"
    },
    {
      "inputs": [],
      "name": "mostrarInfo",
      "outputs": [
        {
          "components": [
            {
              "internalType": "address",
              "name": "_direccion",
              "type": "address"
            },
            {
              "internalType": "uint256",
              "name": "_index",
              "type": "uint256"
            },
            {
              "internalType": "address",
              "name": "_prestatario",
              "type": "address"
            },
            {
              "internalType": "enum PrestamoCursando.State",
              "name": "_state",
              "type": "uint8"
            },
            {
              "internalType": "uint256",
              "name": "_cantidadPrestada",
              "type": "uint256"
            },
            {
              "internalType": "uint256",
              "name": "_deudaRestante",
              "type": "uint256"
            },
            {
              "internalType": "uint256",
              "name": "_cuotaMensual",
              "type": "uint256"
            },
            {
              "internalType": "uint256",
              "name": "_cuotasRestantes",
              "type": "uint256"
            },
            {
              "internalType": "uint256",
              "name": "_penalizacionImpago",
              "type": "uint256"
            },
            {
              "internalType": "uint256",
              "name": "_ultimoCheckeo",
              "type": "uint256"
            }
          ],
          "internalType": "struct PrestamoCursando.InfoContrato",
          "name": "",
          "type": "tuple"
        }
      ],
      "stateMutability": "view",
      "type": "function"
    },
    {
      "inputs": [
        {
          "internalType": "uint256",
          "name": "_index",
          "type": "uint256"
        }
      ],
      "name": "setIndex",
      "outputs": [],
      "stateMutability": "nonpayable",
      "type": "function"
    },
    {
      "inputs": [],
      "name": "checkeoMensual",
      "outputs": [],
      "stateMutability": "nonpayable",
      "type": "function"
    },
    {
      "inputs": [],
      "name": "pagarMensualidad",
      "outputs": [],
      "stateMutability": "payable",
      "type": "function"
    },
    {
      "inputs": [
        {
          "internalType": "uint256",
          "name": "_amount",
          "type": "uint256"
        }
      ],
      "name": "transferirFondosAFactory",
      "outputs": [],
      "stateMutability": "nonpayable",
      "type": "function"
    }
  ],
  "bytecode": "0x608060405234801562000010575f80fd5b506040516200124238038062001242833981810160405281019062000036919062000258565b865f819055506001805f6101000a81548160ff0219169083600281111562000063576200006262000306565b5b0217905550856001806101000a81548173ffffffffffffffffffffffffffffffffffffffff021916908373ffffffffffffffffffffffffffffffffffffffff1602179055508460025f6101000a81548173ffffffffffffffffffffffffffffffffffffffff021916908373ffffffffffffffffffffffffffffffffffffffff1602179055503360035f6101000a81548173ffffffffffffffffffffffffffffffffffffffff021916908373ffffffffffffffffffffffffffffffffffffffff16021790555083600481905550826005819055508160068190555080600881905550620001546200016e60201b60201c565b600781905550426009819055505050505050505062000397565b5f60016004540362000185576006549050620001a1565b6200019e600454600654620001a460201b90919060201c565b90505b90565b5f8183620001b3919062000360565b905092915050565b5f80fd5b5f819050919050565b620001d381620001bf565b8114620001de575f80fd5b50565b5f81519050620001f181620001c8565b92915050565b5f73ffffffffffffffffffffffffffffffffffffffff82169050919050565b5f6200022282620001f7565b9050919050565b620002348162000216565b81146200023f575f80fd5b50565b5f81519050620002528162000229565b92915050565b5f805f805f805f60e0888a031215620002765762000275620001bb565b5b5f620002858a828b01620001e1565b9750506020620002988a828b0162000242565b9650506040620002ab8a828b0162000242565b9550506060620002be8a828b01620001e1565b9450506080620002d18a828b01620001e1565b93505060a0620002e48a828b01620001e1565b92505060c0620002f78a828b01620001e1565b91505092959891949750929550565b7f4e487b71000000000000000000000000000000000000000000000000000000005f52602160045260245ffd5b7f4e487b71000000000000000000000000000000000000000000000000000000005f52601260045260245ffd5b5f6200036c82620001bf565b91506200037983620001bf565b9250826200038c576200038b62000333565b5b828204905092915050565b610e9d80620003a55f395ff3fe608060405260043610610058575f3560e01c80631d3eb5351461006b5780633cc2d80e1461009557806340a5737f146100bf5780635fbfcf3b146100e75780638c469289146100f1578063b5413ff81461010757610067565b366100675761006561012f565b005b5f80fd5b348015610076575f80fd5b5061007f610328565b60405161008c9190610a18565b60405180910390f35b3480156100a0575f80fd5b506100a96103f9565b6040516100b69190610a41565b60405180910390f35b3480156100ca575f80fd5b506100e560048036038101906100e09190610a88565b6103fe565b005b6100ef61012f565b005b3480156100fc575f80fd5b50610105610496565b005b348015610112575f80fd5b5061012d60048036038101906101289190610a88565b61063a565b005b60018054906101000a900473ffffffffffffffffffffffffffffffffffffffff1673ffffffffffffffffffffffffffffffffffffffff163373ffffffffffffffffffffffffffffffffffffffff16146101bd576040517f08c379a00000000000000000000000000000000000000000000000000000000081526004016101b490610b0d565b60405180910390fd5b6007543414610201576040517f08c379a00000000000000000000000000000000000000000000000000000000081526004016101f890610b75565b60405180910390fd5b60016002811115610215576102146108db565b5b60015f9054906101000a900460ff166002811115610236576102356108db565b5b14610276576040517f08c379a000000000000000000000000000000000000000000000000000000000815260040161026d90610bdd565b60405180910390fd5b5f60015f6101000a81548160ff0219169083600281111561029a576102996108db565b5b021790555060075460065f8282546102b29190610c28565b9250508190555060045f8154809291906102cb90610c5b565b91905055506001600454036102e9576102e26106a2565b6007819055505b5f6004540361031d57600260015f6101000a81548160ff02191690836002811115610317576103166108db565b5b02179055505b6103263461063a565b565b6103306107fd565b5f6040518061014001604052803073ffffffffffffffffffffffffffffffffffffffff1681526020015f54815260200160018054906101000a900473ffffffffffffffffffffffffffffffffffffffff1673ffffffffffffffffffffffffffffffffffffffff16815260200160015f9054906101000a900460ff1660028111156103bd576103bc6108db565b5b81526020016005548152602001600654815260200160075481526020016004548152602001600854815260200160095481525090508091505090565b600a81565b3373ffffffffffffffffffffffffffffffffffffffff1660035f9054906101000a900473ffffffffffffffffffffffffffffffffffffffff1673ffffffffffffffffffffffffffffffffffffffff161461048d576040517f08c379a000000000000000000000000000000000000000000000000000000000815260040161048490610ccc565b60405180910390fd5b805f8190555050565b3373ffffffffffffffffffffffffffffffffffffffff1660025f9054906101000a900473ffffffffffffffffffffffffffffffffffffffff1673ffffffffffffffffffffffffffffffffffffffff1614610525576040517f08c379a000000000000000000000000000000000000000000000000000000000815260040161051c90610d34565b60405180910390fd5b600a600954426105359190610c28565b101561053f575f80fd5b60016002811115610553576105526108db565b5b60015f9054906101000a900460ff166002811115610574576105736108db565b5b03610586576105816106d4565b610631565b5f6002811115610599576105986108db565b5b60015f9054906101000a900460ff1660028111156105ba576105b96108db565b5b036105ed576001805f6101000a81548160ff021916908360028111156105e3576105e26108db565b5b0217905550610630565b600280811115610600576105ff6108db565b5b60015f9054906101000a900460ff166002811115610621576106206108db565b5b0361062f5761062e610725565b5b5b5b42600981905550565b60035f9054906101000a900473ffffffffffffffffffffffffffffffffffffffff1673ffffffffffffffffffffffffffffffffffffffff166108fc8290811502906040515f60405180830381858888f1935050505015801561069e573d5f803e3d5ffd5b5050565b5f6001600454036106b75760065490506106d1565b6106ce6004546006546107d390919063ffffffff16565b90505b90565b6106fe60646106f06008546006546107e890919063ffffffff16565b6107d390919063ffffffff16565b60065f82825461070e9190610d52565b9250508190555061071d6106a2565b600781905550565b60035f9054906101000a900473ffffffffffffffffffffffffffffffffffffffff1673ffffffffffffffffffffffffffffffffffffffff1663c350423f60018054906101000a900473ffffffffffffffffffffffffffffffffffffffff16305f546040518463ffffffff1660e01b81526004016107a493929190610d94565b5f604051808303815f87803b1580156107bb575f80fd5b505af11580156107cd573d5f803e3d5ffd5b50505050565b5f81836107e09190610df6565b905092915050565b5f81836107f59190610e26565b905092915050565b6040518061014001604052805f73ffffffffffffffffffffffffffffffffffffffff1681526020015f81526020015f73ffffffffffffffffffffffffffffffffffffffff1681526020015f600281111561085a576108596108db565b5b81526020015f81526020015f81526020015f81526020015f81526020015f81526020015f81525090565b5f73ffffffffffffffffffffffffffffffffffffffff82169050919050565b5f6108ad82610884565b9050919050565b6108bd816108a3565b82525050565b5f819050919050565b6108d5816108c3565b82525050565b7f4e487b71000000000000000000000000000000000000000000000000000000005f52602160045260245ffd5b60038110610919576109186108db565b5b50565b5f81905061092982610908565b919050565b5f6109388261091c565b9050919050565b6109488161092e565b82525050565b61014082015f8201516109635f8501826108b4565b50602082015161097660208501826108cc565b50604082015161098960408501826108b4565b50606082015161099c606085018261093f565b5060808201516109af60808501826108cc565b5060a08201516109c260a08501826108cc565b5060c08201516109d560c08501826108cc565b5060e08201516109e860e08501826108cc565b506101008201516109fd6101008501826108cc565b50610120820151610a126101208501826108cc565b50505050565b5f61014082019050610a2c5f83018461094e565b92915050565b610a3b816108c3565b82525050565b5f602082019050610a545f830184610a32565b92915050565b5f80fd5b610a67816108c3565b8114610a71575f80fd5b50565b5f81359050610a8281610a5e565b92915050565b5f60208284031215610a9d57610a9c610a5a565b5b5f610aaa84828501610a74565b91505092915050565b5f82825260208201905092915050565b7f4f6e6c7920626f72726f776572000000000000000000000000000000000000005f82015250565b5f610af7600d83610ab3565b9150610b0282610ac3565b602082019050919050565b5f6020820190508181035f830152610b2481610aeb565b9050919050565b7f53656e6420657861637420646562742076616c756500000000000000000000005f82015250565b5f610b5f601583610ab3565b9150610b6a82610b2b565b602082019050919050565b5f6020820190508181035f830152610b8c81610b53565b9050919050565b7f5061796d656e7420706572696f64206e6f74206f70656e0000000000000000005f82015250565b5f610bc7601783610ab3565b9150610bd282610b93565b602082019050919050565b5f6020820190508181035f830152610bf481610bbb565b9050919050565b7f4e487b71000000000000000000000000000000000000000000000000000000005f52601160045260245ffd5b5f610c32826108c3565b9150610c3d836108c3565b9250828203905081811115610c5557610c54610bfb565b5b92915050565b5f610c65826108c3565b91505f8203610c7757610c76610bfb565b5b600182039050919050565b7f4f6e6c7920636f6e747261637420466163746f727900000000000000000000005f82015250565b5f610cb6601583610ab3565b9150610cc182610c82565b602082019050919050565b5f6020820190508181035f830152610ce381610caa565b9050919050565b7f4f6e6c792066696e616e6369616c20656e7469747900000000000000000000005f82015250565b5f610d1e601583610ab3565b9150610d2982610cea565b602082019050919050565b5f6020820190508181035f830152610d4b81610d12565b9050919050565b5f610d5c826108c3565b9150610d67836108c3565b9250828201905080821115610d7f57610d7e610bfb565b5b92915050565b610d8e816108a3565b82525050565b5f606082019050610da75f830186610d85565b610db46020830185610d85565b610dc16040830184610a32565b949350505050565b7f4e487b71000000000000000000000000000000000000000000000000000000005f52601260045260245ffd5b5f610e00826108c3565b9150610e0b836108c3565b925082610e1b57610e1a610dc9565b5b828204905092915050565b5f610e30826108c3565b9150610e3b836108c3565b9250828202610e49816108c3565b91508282048414831517610e6057610e5f610bfb565b5b509291505056fea264697066735822122065bd46b62d6c73739fdfbddb0af52f7e89fdf1724afa3a650ca41afe14cec3a264736f6c63430008140033",
  "immutableReferences": {},
  "source": "// SPDX-License-Identifier: GPL-3.0\r\npragma solidity >=0.8.0 <0.9.0;\r\nimport \"@openzeppelin/contracts/utils/math/SafeMath.sol\";\r\n//SafeMath.sol no aparece con npm install, importado manualmente \r\ncontract PrestamosFactory {\r\n\r\n    using SafeMath for uint256;\r\n\r\n    //ENTRE ELEGIR MAPPING Y ARRAY SE TIENE QUE DECIDIR EN TIEMPOR DE EJECUION SEGUN COSTE O POSIBLIDAD DE EXCEDER LMITE DE TIEMPO\r\n    //(COMENTAR EN ALGN LADO Y ELEGIR CUALQUIERA)\r\n\r\n    address payable private owner;\r\n    TipoContrato[] tiposContrato;\r\n\r\n    mapping(address => PrestamoCursando[])  prestamosCursando;\r\n    address[] clientes;\r\n\r\n    struct TipoContrato {\r\n        uint256 index;\r\n        uint256 porcentajeInteres; \r\n        uint256 cantidad; \r\n        uint256 deudaTotal;\r\n        uint256 cuotas;\r\n        uint256 penalizacionImpago;\r\n    }\r\n    \r\n    event PrestamoDefinido(TipoContrato tipoContrato);\r\n    event NuevoPrestamoCursando(address indexed direccionContrato, address indexed prestatario);\r\n    event FondosRecibidos(address direccion,uint256 cantidad);\r\n\r\n    modifier onlyOwner() {\r\n        require(owner == msg.sender,\"Only Owner\");\r\n         _;\r\n    }\r\n    \r\n    constructor(){\r\n        owner = payable(msg.sender);\r\n    }\r\n\r\n    receive() external payable {\r\n        invertir();\r\n    }\r\n\r\n    function invertir() public payable {\r\n        emit FondosRecibidos(msg.sender, msg.value);\r\n    }\r\n\r\n    function getBalance() public view onlyOwner returns(uint256) {\r\n    \r\n        return address(this).balance;\r\n    }\r\n    function getClientes() public view onlyOwner  returns(address[] memory) {\r\n        return clientes;\r\n\r\n    }\r\n\r\n    function recolectarFondos(uint256 amount) public  onlyOwner {\r\n        require(address(this).balance >= amount);\r\n        owner.transfer(amount);\r\n\r\n    }\r\n\r\n    function verTiposContrato() public view returns (TipoContrato[] memory) {\r\n        return tiposContrato;\r\n    }\r\n\r\n\r\n    function verContratos(address _prestatario) public view returns (PrestamoCursando[] memory){\r\n        require((msg.sender == owner)||(msg.sender == _prestatario), \"Top Secret\");\r\n        return (prestamosCursando[_prestatario]);\r\n    }\r\n\r\n\r\n    function definirPrestamo(uint8 _porcentajeInteres, uint256 _cantidad, uint8 _cuotas, uint8 _penalizacionImpago) public onlyOwner {\r\n\r\n        require(_penalizacionImpago >= 0 && _penalizacionImpago <= 100, \"La penalizacion tiene que ser un porcentaje\");\r\n        require(_porcentajeInteres >= 0 && _porcentajeInteres <= 100, \"El interes tiene que ser un porcentaje\");\r\n\r\n\r\n        uint256 _deudaTotal = _cantidad + _cantidad.mul(_porcentajeInteres).div(100);\r\n\r\n        TipoContrato memory nuevoPrestamo = TipoContrato({\r\n            index: 0 ,\r\n            porcentajeInteres: _porcentajeInteres,\r\n            cantidad: _cantidad,\r\n            deudaTotal: _deudaTotal,\r\n            cuotas: _cuotas,\r\n            penalizacionImpago: _penalizacionImpago\r\n        });\r\n\r\n        tiposContrato.push(nuevoPrestamo);\r\n        //Guardo el index dentro del Objeto prstamo para mayor facilidad de acceso desde web3\r\n        tiposContrato[tiposContrato.length - 1].index = tiposContrato.length-1;\r\n        emit PrestamoDefinido(nuevoPrestamo);\r\n    \r\n    }\r\n\r\n\r\n\r\n   \r\n    function contratarPrestamo(address payable _prestatario, uint8 indexTipoContrato) public {\r\n\r\n        require(msg.sender == _prestatario, \"No se puede contratar en nombre de otros\");\r\n\r\n        TipoContrato memory tipoPrestamo = tiposContrato[indexTipoContrato];\r\n        require(address(this).balance >= tipoPrestamo.cantidad,\"Prestamo no disponible\");\r\n\r\n        //Compruebo si la cuenta tiene otro conrtrato contratado\r\n        if(prestamosCursando[_prestatario].length == 0){\r\n            clientes.push(_prestatario);\r\n        }\r\n        //Guardo index para faciltar acceso\r\n        uint256 _indexNuevoPrestamo = prestamosCursando[_prestatario].length;\r\n        PrestamoCursando newPrestamo = new PrestamoCursando(_indexNuevoPrestamo, _prestatario, owner, tipoPrestamo.cuotas, tipoPrestamo.cantidad,\r\n                                                            tipoPrestamo.deudaTotal, tipoPrestamo.penalizacionImpago);\r\n\r\n        //Enviar dinero a usuario\r\n        emit NuevoPrestamoCursando(address(newPrestamo), _prestatario);                                                \r\n        prestamosCursando[_prestatario].push(newPrestamo);\r\n        _prestatario.transfer(tipoPrestamo.cantidad);\r\n\r\n    }\r\n\r\n    function  eliminarPrestamoFinalizado(address user, address _finalizado, uint index) external {\r\n        require(msg.sender == _finalizado, \"Los contratos se autoeliminan una vez finalizados\");\r\n        //Se copia el ultimo elemento del array y se le cambia el ndice\r\n        prestamosCursando[user][index] = prestamosCursando[user][prestamosCursando[user].length - 1];\r\n        prestamosCursando[user][index].setIndex(index);\r\n        //Se elimina el elemento copiado\r\n        prestamosCursando[user].pop();\r\n\r\n        //En caso de que el cliente deje de tener contratos con nostros le eliminamos de la lista de clientes\r\n        if( prestamosCursando[user].length == 0){\r\n            for(uint i = 0 ; i < clientes.length; i ++ ) {\r\n                if (clientes[i] == user) {\r\n                    clientes[i] = clientes[clientes.length - 1];\r\n                    break;\r\n                }\r\n            }\r\n            clientes.pop();\r\n        }\r\n\r\n    }\r\n    \r\n    }\r\n\r\ncontract PrestamoCursando {\r\n\r\n    using SafeMath for uint256;\r\n\r\n    uint index;\r\n    enum State { PAGADO, ABIERTO, FINALIZADO }\r\n    State state;\r\n    address prestatario;\r\n    address entidadFinanciera;\r\n    address payable prestamosFactory;\r\n    uint256 cuotasRestantes;\r\n    uint256 cantidadPrestada;\r\n    uint256 deudaRestante;\r\n    uint256 cuotaMensual;\r\n    uint256 penalizacion;\r\n    uint256 ultimoCheckeo;\r\n\r\n    struct InfoContrato {\r\n        address _direccion;\r\n        uint256 _index;\r\n        address _prestatario;\r\n        State _state;\r\n        uint256 _cantidadPrestada; \r\n        uint256 _deudaRestante;\r\n        uint256 _cuotaMensual;\r\n        uint256 _cuotasRestantes;\r\n        uint256 _penalizacionImpago;\r\n        uint256 _ultimoCheckeo;\r\n    }\r\n\r\n    //2629800 = 1 MES;\r\n    uint256 public constant PLAZO = 10;\r\n\r\n    modifier onlyFinancialEntity() {\r\n        require(entidadFinanciera == msg.sender,\"Only financial entity\");\r\n         _;\r\n    }\r\n    \r\n    modifier onlyContractFactory() {\r\n        require(prestamosFactory == msg.sender,\"Only contract Factory\");\r\n         _;\r\n    }\r\n\r\n    modifier hasBeenOneMonth() {\r\n        require(block.timestamp - ultimoCheckeo >= PLAZO );\r\n        _;\r\n    }\r\n\r\n    constructor(uint256 _index, address _prestatario, address _entidad, uint256 _cuotasRestantes, uint256 _cantidad, uint256 _deudaTotal, uint256 _penalizacion){\r\n        index = _index;\r\n        state = State.ABIERTO;\r\n        prestatario = _prestatario;\r\n        entidadFinanciera = _entidad;\r\n        prestamosFactory = payable(msg.sender);\r\n        cuotasRestantes = _cuotasRestantes;\r\n        cantidadPrestada = _cantidad;\r\n        deudaRestante = _deudaTotal;\r\n        penalizacion = _penalizacion;\r\n        cuotaMensual = calculoCuotaMensual();\r\n        ultimoCheckeo = block.timestamp;\r\n    }\r\n\r\n    function mostrarInfo() external view returns (InfoContrato memory){\r\n        InfoContrato memory infoContrato = InfoContrato({\r\n            _direccion: address(this),\r\n            _index: index,\r\n            _prestatario: prestatario,\r\n            _state: state,\r\n            _cantidadPrestada: cantidadPrestada,\r\n            _deudaRestante: deudaRestante,\r\n            _cuotaMensual: cuotaMensual,\r\n            _cuotasRestantes: cuotasRestantes,\r\n            _penalizacionImpago: penalizacion,\r\n            _ultimoCheckeo: ultimoCheckeo\r\n        });\r\n    \r\n        return infoContrato;\r\n    }\r\n\r\n\r\n    function setIndex(uint _index) external onlyContractFactory {\r\n        index = _index;\r\n    }\r\n\r\n    function calculoCuotaMensual() private view returns (uint256){\r\n        //Debido a problemas con el tratamiento de decimales de solidity puede resultar el caso que\r\n        // deudarestante/cuotasrestantes no de un numero entero\r\n        //Esto implica que quede deuda despues de pagar todas las cuotas por lo que este resto se aade a la cuota final\r\n        if(cuotasRestantes == 1) {\r\n            return  deudaRestante;\r\n            }\r\n        else {\r\n            return deudaRestante.div(cuotasRestantes);\r\n        }\r\n       \r\n    }\r\n\r\n    function checkeoMensual() onlyFinancialEntity hasBeenOneMonth public {\r\n        \r\n        if(state == State.ABIERTO){\r\n            penalizarPrestamo();\r\n        }\r\n        else if(state == State.PAGADO){\r\n            state = State.ABIERTO;\r\n        }\r\n        else if (state == State.FINALIZADO){\r\n            eliminarContratoFinalizado();\r\n        }\r\n\r\n        ultimoCheckeo = block.timestamp;\r\n  \r\n    }\r\n\r\n    function eliminarContratoFinalizado() private {\r\n        PrestamosFactory(prestamosFactory).eliminarPrestamoFinalizado(prestatario, address(this), index); \r\n    }\r\n\r\n    //Numero de cuotas se mantiene\r\n    function penalizarPrestamo() private {\r\n        deudaRestante += deudaRestante.mul(penalizacion).div(100); \r\n        cuotaMensual = calculoCuotaMensual();\r\n    }\r\n\r\n    receive() external payable {\r\n        pagarMensualidad();\r\n    }\r\n\r\n    function pagarMensualidad() payable public {\r\n        require(msg.sender == prestatario, \"Only borrower\");\r\n        require(msg.value == cuotaMensual, \"Send exact debt value\");\r\n        require(state == State.ABIERTO, \"Payment period not open\");\r\n       \r\n        state = State.PAGADO;\r\n        deudaRestante -= cuotaMensual;\r\n        cuotasRestantes--;\r\n\r\n        if(cuotasRestantes == 1){\r\n            cuotaMensual = calculoCuotaMensual();\r\n         }\r\n\r\n        if(cuotasRestantes == 0){\r\n         state = State.FINALIZADO;\r\n        }\r\n        transferirFondosAFactory(msg.value);\r\n        \r\n    }\r\n\r\n    //Por seguridad se pone a public para evitar fondos bloqueados en este contrato.\r\n    function transferirFondosAFactory(uint256 _amount) public {\r\n        prestamosFactory.transfer(_amount);\r\n    }\r\n    \r\n\r\n\r\n}",
  "sourcePath": "C:\\Users\\akila\\Desktop\\PRESTAMOS FACTORY\\myApp\\truffle\\contracts\\PRESTAMOS_FACTORY.sol",
  "compiler": {
    "name": "solc",
    "version": "0.8.20+commit.a1b79de6.Emscripten.clang"
  },
  "schemaVersion": "3.4.16",
  "updatedAt": "2023-12-05T05:56:01.485Z",
  "devdoc": {
    "kind": "dev",
    "methods": {},
    "version": 1
  },
  "userdoc": {
    "kind": "user",
    "methods": {},
    "version": 1
  }
}