{
  "contractName": "PrestamoCursando",
  "abi": [
    {
      "inputs": [
        {
          "internalType": "uint256",
          "name": "_index",
          "type": "uint256"
        },
        {
          "internalType": "address",
          "name": "_prestatario",
          "type": "address"
        },
        {
          "internalType": "address",
          "name": "_entidad",
          "type": "address"
        },
        {
          "internalType": "uint8",
          "name": "_cuotasRestantes",
          "type": "uint8"
        },
        {
          "internalType": "uint256",
          "name": "_cantidad",
          "type": "uint256"
        },
        {
          "internalType": "uint256",
          "name": "_deudaTotal",
          "type": "uint256"
        },
        {
          "internalType": "uint8",
          "name": "_penalizacion",
          "type": "uint8"
        }
      ],
      "stateMutability": "nonpayable",
      "type": "constructor"
    },
    {
      "inputs": [],
      "name": "PLAZO",
      "outputs": [
        {
          "internalType": "uint256",
          "name": "",
          "type": "uint256"
        }
      ],
      "stateMutability": "view",
      "type": "function"
    },
    {
      "stateMutability": "payable",
      "type": "receive"
    },
    {
      "inputs": [
        {
          "internalType": "uint256",
          "name": "_index",
          "type": "uint256"
        }
      ],
      "name": "setIndex",
      "outputs": [],
      "stateMutability": "nonpayable",
      "type": "function"
    },
    {
      "inputs": [],
      "name": "checkeoMensual",
      "outputs": [],
      "stateMutability": "nonpayable",
      "type": "function"
    },
    {
      "inputs": [],
      "name": "pagarMensualidad",
      "outputs": [],
      "stateMutability": "payable",
      "type": "function"
    },
    {
      "inputs": [
        {
          "internalType": "uint256",
          "name": "_amount",
          "type": "uint256"
        }
      ],
      "name": "transferirFondosAFactory",
      "outputs": [],
      "stateMutability": "nonpayable",
      "type": "function"
    }
  ],
  "bytecode": "0x60806040523480156200001157600080fd5b5060405162000f9c38038062000f9c8339818101604052810190620000379190620002a7565b8660008190555060018060006101000a81548160ff021916908360028111156200006657620000656200035a565b5b0217905550856001806101000a81548173ffffffffffffffffffffffffffffffffffffffff021916908373ffffffffffffffffffffffffffffffffffffffff16021790555084600260006101000a81548173ffffffffffffffffffffffffffffffffffffffff021916908373ffffffffffffffffffffffffffffffffffffffff16021790555033600360006101000a81548173ffffffffffffffffffffffffffffffffffffffff021916908373ffffffffffffffffffffffffffffffffffffffff16021790555083600360146101000a81548160ff021916908360ff160217905550826004819055508160058190555080600760006101000a81548160ff021916908360ff160217905550620001816200019b60201b60201c565b6006819055504260088190555050505050505050620003f0565b6000600360149054906101000a900460ff1660ff16600554620001bf9190620003b8565b905090565b600080fd5b6000819050919050565b620001de81620001c9565b8114620001ea57600080fd5b50565b600081519050620001fe81620001d3565b92915050565b600073ffffffffffffffffffffffffffffffffffffffff82169050919050565b6000620002318262000204565b9050919050565b620002438162000224565b81146200024f57600080fd5b50565b600081519050620002638162000238565b92915050565b600060ff82169050919050565b620002818162000269565b81146200028d57600080fd5b50565b600081519050620002a18162000276565b92915050565b600080600080600080600060e0888a031215620002c957620002c8620001c4565b5b6000620002d98a828b01620001ed565b9750506020620002ec8a828b0162000252565b9650506040620002ff8a828b0162000252565b9550506060620003128a828b0162000290565b9450506080620003258a828b01620001ed565b93505060a0620003388a828b01620001ed565b92505060c06200034b8a828b0162000290565b91505092959891949750929550565b7f4e487b7100000000000000000000000000000000000000000000000000000000600052602160045260246000fd5b7f4e487b7100000000000000000000000000000000000000000000000000000000600052601260045260246000fd5b6000620003c582620001c9565b9150620003d283620001c9565b925082620003e557620003e462000389565b5b828204905092915050565b610b9c80620004006000396000f3fe60806040526004361061004e5760003560e01c80633cc2d80e1461006257806340a5737f1461008d5780635fbfcf3b146100b65780638c469289146100c0578063b5413ff8146100d75761005d565b3661005d5761005b610100565b005b600080fd5b34801561006e57600080fd5b506100776102e6565b60405161008491906106e0565b60405180910390f35b34801561009957600080fd5b506100b460048036038101906100af919061072c565b6102ec565b005b6100be610100565b005b3480156100cc57600080fd5b506100d5610386565b005b3480156100e357600080fd5b506100fe60048036038101906100f9919061072c565b61052b565b005b60018054906101000a900473ffffffffffffffffffffffffffffffffffffffff1673ffffffffffffffffffffffffffffffffffffffff163373ffffffffffffffffffffffffffffffffffffffff161461018e576040517f08c379a0000000000000000000000000000000000000000000000000000000008152600401610185906107b6565b60405180910390fd5b60065434146101d2576040517f08c379a00000000000000000000000000000000000000000000000000000000081526004016101c990610822565b60405180910390fd5b600160028111156101e6576101e5610842565b5b600160009054906101000a900460ff16600281111561020857610207610842565b5b14610248576040517f08c379a000000000000000000000000000000000000000000000000000000000815260040161023f906108bd565b60405180910390fd5b6000600360149054906101000a900460ff1660ff1603610292576002600160006101000a81548160ff0219169083600281111561028857610287610842565b5b02179055506102d9565b6000600160006101000a81548160ff021916908360028111156102b8576102b7610842565b5b0217905550600654600560008282546102d1919061090c565b925050819055505b6102e460065461052b565b565b61753081565b3373ffffffffffffffffffffffffffffffffffffffff16600360009054906101000a900473ffffffffffffffffffffffffffffffffffffffff1673ffffffffffffffffffffffffffffffffffffffff161461037c576040517f08c379a00000000000000000000000000000000000000000000000000000000081526004016103739061098c565b60405180910390fd5b8060008190555050565b3373ffffffffffffffffffffffffffffffffffffffff16600260009054906101000a900473ffffffffffffffffffffffffffffffffffffffff1673ffffffffffffffffffffffffffffffffffffffff1614610416576040517f08c379a000000000000000000000000000000000000000000000000000000000815260040161040d906109f8565b60405180910390fd5b61753060085442610427919061090c565b101561043257600080fd5b6001600281111561044657610445610842565b5b600160009054906101000a900460ff16600281111561046857610467610842565b5b0361047a57610475610597565b610529565b6000600281111561048e5761048d610842565b5b600160009054906101000a900460ff1660028111156104b0576104af610842565b5b036104e45760018060006101000a81548160ff021916908360028111156104da576104d9610842565b5b0217905550610528565b6002808111156104f7576104f6610842565b5b600160009054906101000a900460ff16600281111561051957610518610842565b5b03610527576105266105eb565b5b5b5b565b600360009054906101000a900473ffffffffffffffffffffffffffffffffffffffff1673ffffffffffffffffffffffffffffffffffffffff166108fc829081150290604051600060405180830381858888f19350505050158015610593573d6000803e3d6000fd5b5050565b6064600760009054906101000a900460ff1660ff166005546105b99190610a18565b6105c39190610a89565b600560008282546105d49190610aba565b925050819055506105e36106a0565b600681905550565b600360009054906101000a900473ffffffffffffffffffffffffffffffffffffffff1673ffffffffffffffffffffffffffffffffffffffff1663c350423f60018054906101000a900473ffffffffffffffffffffffffffffffffffffffff16306000546040518463ffffffff1660e01b815260040161066c93929190610b2f565b600060405180830381600087803b15801561068657600080fd5b505af115801561069a573d6000803e3d6000fd5b50505050565b6000600360149054906101000a900460ff1660ff166005546106c29190610a89565b905090565b6000819050919050565b6106da816106c7565b82525050565b60006020820190506106f560008301846106d1565b92915050565b600080fd5b610709816106c7565b811461071457600080fd5b50565b60008135905061072681610700565b92915050565b600060208284031215610742576107416106fb565b5b600061075084828501610717565b91505092915050565b600082825260208201905092915050565b7f4f6e6c7920626f72726f77657200000000000000000000000000000000000000600082015250565b60006107a0600d83610759565b91506107ab8261076a565b602082019050919050565b600060208201905081810360008301526107cf81610793565b9050919050565b7f53656e6420657861637420646562742076616c75650000000000000000000000600082015250565b600061080c601583610759565b9150610817826107d6565b602082019050919050565b6000602082019050818103600083015261083b816107ff565b9050919050565b7f4e487b7100000000000000000000000000000000000000000000000000000000600052602160045260246000fd5b7f5061796d656e7420706572696f64206e6f74206f70656e000000000000000000600082015250565b60006108a7601783610759565b91506108b282610871565b602082019050919050565b600060208201905081810360008301526108d68161089a565b9050919050565b7f4e487b7100000000000000000000000000000000000000000000000000000000600052601160045260246000fd5b6000610917826106c7565b9150610922836106c7565b925082820390508181111561093a576109396108dd565b5b92915050565b7f4f6e6c7920636f6e747261637420466163746f72790000000000000000000000600082015250565b6000610976601583610759565b915061098182610940565b602082019050919050565b600060208201905081810360008301526109a581610969565b9050919050565b7f4f6e6c792066696e616e6369616c20656e746974790000000000000000000000600082015250565b60006109e2601583610759565b91506109ed826109ac565b602082019050919050565b60006020820190508181036000830152610a11816109d5565b9050919050565b6000610a23826106c7565b9150610a2e836106c7565b9250828202610a3c816106c7565b91508282048414831517610a5357610a526108dd565b5b5092915050565b7f4e487b7100000000000000000000000000000000000000000000000000000000600052601260045260246000fd5b6000610a94826106c7565b9150610a9f836106c7565b925082610aaf57610aae610a5a565b5b828204905092915050565b6000610ac5826106c7565b9150610ad0836106c7565b9250828201905080821115610ae857610ae76108dd565b5b92915050565b600073ffffffffffffffffffffffffffffffffffffffff82169050919050565b6000610b1982610aee565b9050919050565b610b2981610b0e565b82525050565b6000606082019050610b446000830186610b20565b610b516020830185610b20565b610b5e60408301846106d1565b94935050505056fea264697066735822122080d5d849def11750ba3aaea941028275f0c6f60f1a33ff2804d34c18d1f443ef64736f6c63430008130033",
  "immutableReferences": {},
  "source": "// SPDX-License-Identifier: GPL-3.0\r\npragma solidity >=0.8.0 <0.9.0;\r\n\r\ncontract PrestamosFactory {\r\n\r\n    //ENTRE ELEGIR MAPPING Y ARRAY SE TIENE QUE DECIDIR EN TIEMPOR DE EJECUION SEGUN COSTE O POSIBLIDAD DE EXCEDER LMITE DE TIEMPO\r\n    //(COMENTAR EN ALGN LADO Y ELEGIR CUALQUIERA)\r\n\r\n    address payable private owner;\r\n    TipoContrato[] tiposContrato;\r\n\r\n    mapping(address => PrestamoCursando[]) public prestamosCursando;\r\n    address[] clientes;\r\n\r\n    struct TipoContrato {\r\n        uint256 index;\r\n        uint8 porcentajeInteres; \r\n        uint256 cantidad; \r\n        uint256 deudaTotal;\r\n        uint8 cuotas;\r\n        uint8 penalizacionImpago;\r\n    }\r\n    \r\n    event PrestamoDefinido(TipoContrato tipoContrato);\r\n    event NuevoPrestamoCursando(address indexed direccionContrato, address indexed prestatario);\r\n    event FondosRecibidos(address direccion,uint256 cantidad);\r\n\r\n    modifier onlyOwner() {\r\n        require(owner == msg.sender,\"Only Owner\");\r\n         _;\r\n    }\r\n    \r\n    constructor(){\r\n        owner = payable(msg.sender);\r\n    }\r\n\r\n    receive() external payable {\r\n        invertir();\r\n    }\r\n\r\n    function invertir() public payable {\r\n        emit FondosRecibidos(msg.sender, msg.value);\r\n    }\r\n\r\n    function recolectarFondos(uint256 amount) public  onlyOwner {\r\n        require(address(this).balance >= amount);\r\n        owner.transfer(amount);\r\n\r\n    }\r\n\r\n    function verTiposContrato() public view returns (TipoContrato[] memory) {\r\n        return tiposContrato;\r\n    }\r\n\r\n\r\n    function verContratos(address _prestatario) public view returns (PrestamoCursando[] memory){\r\n        require((msg.sender == owner)||(msg.sender == _prestatario), \"Top Secret\");\r\n        return (prestamosCursando[_prestatario]);\r\n    }\r\n\r\n\r\n    function definirPrestamo(uint8 _porcentajeInteres, uint256 _cantidad, uint8 _cuotas, uint8 _penalizacionImpago) public onlyOwner {\r\n\r\n        require(_penalizacionImpago >= 0 && _penalizacionImpago <= 100, \"La penalizacion tiene que ser un porcentaje\");\r\n        require(_porcentajeInteres >= 0 && _porcentajeInteres <= 100, \"El interes tiene que ser un porcentaje\");\r\n\r\n\r\n        uint256 _deudaTotal = _cantidad * (_porcentajeInteres / 100);\r\n\r\n        TipoContrato memory nuevoPrestamo = TipoContrato({\r\n            index: 0 ,\r\n            porcentajeInteres: _porcentajeInteres,\r\n            cantidad: _cantidad,\r\n            deudaTotal: _deudaTotal,\r\n            cuotas: _cuotas,\r\n            penalizacionImpago: _penalizacionImpago\r\n        });\r\n\r\n        tiposContrato.push(nuevoPrestamo);\r\n        //Guardo el index dentro del Objeto prstamo para mayor facilidad de acceso desde web3\r\n        tiposContrato[tiposContrato.length - 1].index = tiposContrato.length-1;\r\n        emit PrestamoDefinido(nuevoPrestamo);\r\n    \r\n    }\r\n\r\n\r\n\r\n   \r\n    function contratarPrestamo(address payable _prestatario, uint8 indexTipoContrato) public {\r\n\r\n        require(msg.sender == _prestatario, \"No se puede contratar en nombre de otros\");\r\n\r\n        TipoContrato memory tipoPrestamo = tiposContrato[indexTipoContrato];\r\n        require(address(this).balance >= tipoPrestamo.cantidad,\"Prestamo no disponible\");\r\n\r\n        //Compruebo si la cuenta tiene otro conrtrato contratado\r\n        if(prestamosCursando[_prestatario].length == 0){\r\n            clientes.push(_prestatario);\r\n        }\r\n        //Guardo index para faciltar acceso\r\n        uint256 _indexNuevoPrestamo = prestamosCursando[_prestatario].length;\r\n        PrestamoCursando newPrestamo = new PrestamoCursando(_indexNuevoPrestamo, _prestatario, owner, tipoPrestamo.cuotas, tipoPrestamo.cantidad,\r\n                                                            tipoPrestamo.deudaTotal, tipoPrestamo.penalizacionImpago);\r\n\r\n        //Enviar dinero a usuario\r\n        emit NuevoPrestamoCursando(address(newPrestamo), _prestatario);                                                \r\n        prestamosCursando[_prestatario].push(newPrestamo);\r\n        _prestatario.transfer(tipoPrestamo.cantidad);\r\n\r\n    }\r\n\r\n    function  eliminarPrestamoFinalizado(address user, address _finalizado, uint index) external {\r\n        require(msg.sender == _finalizado, \"Los contratos se autoeliminan una vez finalizados\");\r\n        //Se copia el ultimo elemento del array y se le cambia el ndice\r\n        prestamosCursando[user][index] = prestamosCursando[user][prestamosCursando[user].length - 1];\r\n        prestamosCursando[user][index].setIndex(index);\r\n        //Se elimina el elemento copiado\r\n        prestamosCursando[user].pop();\r\n\r\n        //En caso de que el cliente deje de tener contratos con nostros le eliminamos de la lista de clientes\r\n        if( prestamosCursando[user].length == 0){\r\n            for(uint i = 0 ; i < clientes.length; i ++ ) {\r\n                if (clientes[i] == user) {\r\n                    clientes[i] = clientes[clientes.length - 1];\r\n                    break;\r\n                }\r\n            }\r\n            clientes.pop();\r\n        }\r\n\r\n    }\r\n    \r\n    }\r\n\r\ncontract PrestamoCursando {\r\n\r\n    uint index;\r\n    enum State { PAGADO, ABIERTO, FINALIZADO }\r\n    State state;\r\n    address prestatario;\r\n    address entidadFinanciera;\r\n    address payable prestamosFactory;\r\n    uint8 cuotasRestantes;\r\n    uint256 cantidadPrestada;\r\n    uint256 deudaRestante;\r\n    uint256 cuotaMensual;\r\n    uint8 penalizacion;\r\n    uint256 ultimoCheckeo;\r\n\r\n    //2592000000 = 1 MES;\r\n    uint256 public constant PLAZO = 30000;\r\n\r\n    modifier onlyFinancialEntity() {\r\n        require(entidadFinanciera == msg.sender,\"Only financial entity\");\r\n         _;\r\n    }\r\n    \r\n    modifier onlyContractFactory() {\r\n        require(prestamosFactory == msg.sender,\"Only contract Factory\");\r\n         _;\r\n    }\r\n\r\n    modifier hasBeenOneMonth() {\r\n        require(block.timestamp - ultimoCheckeo >= PLAZO );\r\n        _;\r\n    }\r\n\r\n    constructor(uint256 _index, address _prestatario, address _entidad, uint8 _cuotasRestantes, uint256 _cantidad, uint256 _deudaTotal, uint8 _penalizacion){\r\n        index = _index;\r\n        state = State.ABIERTO;\r\n        prestatario = _prestatario;\r\n        entidadFinanciera = _entidad;\r\n        prestamosFactory = payable(msg.sender);\r\n        cuotasRestantes = _cuotasRestantes;\r\n        cantidadPrestada = _cantidad;\r\n        deudaRestante = _deudaTotal;\r\n        penalizacion = _penalizacion;\r\n        cuotaMensual = calculoCuotaMensual();\r\n        ultimoCheckeo = block.timestamp;\r\n    }\r\n\r\n    function setIndex(uint _index) external onlyContractFactory {\r\n        index = _index;\r\n    }\r\n\r\n    function calculoCuotaMensual() private view returns (uint256){\r\n        return deudaRestante / cuotasRestantes;\r\n    }\r\n\r\n    function checkeoMensual() onlyFinancialEntity hasBeenOneMonth public {\r\n        \r\n        if(state == State.ABIERTO){\r\n            penalizarPrestamo();\r\n        }\r\n        else if(state == State.PAGADO){\r\n            state = State.ABIERTO;\r\n        }\r\n        else if (state == State.FINALIZADO){\r\n            eliminarContratoFinalizado();\r\n        }\r\n    }\r\n\r\n    function eliminarContratoFinalizado() private {\r\n        PrestamosFactory(prestamosFactory).eliminarPrestamoFinalizado(prestatario, address(this), index); \r\n    }\r\n\r\n    //Numero de cuotas se mantiene\r\n    function penalizarPrestamo() private {\r\n        deudaRestante += deudaRestante * penalizacion / 100; \r\n        cuotaMensual = calculoCuotaMensual();\r\n    }\r\n\r\n    receive() external payable {\r\n        pagarMensualidad();\r\n    }\r\n\r\n    function pagarMensualidad() payable public {\r\n        require(msg.sender == prestatario, \"Only borrower\");\r\n        require(msg.value == cuotaMensual, \"Send exact debt value\");\r\n        require(state == State.ABIERTO, \"Payment period not open\");\r\n        if(cuotasRestantes == 0){\r\n            state = State.FINALIZADO;\r\n        }\r\n        else {\r\n            state = State.PAGADO;\r\n            deudaRestante -= cuotaMensual;\r\n        }\r\n        transferirFondosAFactory(cuotaMensual);\r\n    }\r\n\r\n    //Por seguridad se pone a public para evitar fondos bloqueados en este contrato.\r\n    function transferirFondosAFactory(uint256 _amount) public {\r\n        prestamosFactory.transfer(_amount);\r\n    }\r\n    \r\n\r\n\r\n}",
  "sourcePath": "C:\\Users\\akila\\Desktop\\PRESTAMOS FACTORY\\myApp\\truffle\\contracts\\PRESTAMOS_FACTORY.sol",
  "compiler": {
    "name": "solc",
    "version": "0.8.19+commit.7dd6d404.Emscripten.clang"
  },
  "schemaVersion": "3.4.16",
  "updatedAt": "2023-12-02T03:07:45.235Z",
  "devdoc": {
    "kind": "dev",
    "methods": {},
    "version": 1
  },
  "userdoc": {
    "kind": "user",
    "methods": {},
    "version": 1
  }
}