{
  "contractName": "PrestamoCursando",
  "abi": [
    {
      "inputs": [
        {
          "internalType": "uint256",
          "name": "_index",
          "type": "uint256"
        },
        {
          "internalType": "address",
          "name": "_prestatario",
          "type": "address"
        },
        {
          "internalType": "address",
          "name": "_entidad",
          "type": "address"
        },
        {
          "internalType": "uint256",
          "name": "_cuotasRestantes",
          "type": "uint256"
        },
        {
          "internalType": "uint256",
          "name": "_cantidad",
          "type": "uint256"
        },
        {
          "internalType": "uint256",
          "name": "_deudaTotal",
          "type": "uint256"
        },
        {
          "internalType": "uint256",
          "name": "_penalizacion",
          "type": "uint256"
        }
      ],
      "stateMutability": "nonpayable",
      "type": "constructor"
    },
    {
      "inputs": [],
      "name": "PLAZO",
      "outputs": [
        {
          "internalType": "uint256",
          "name": "",
          "type": "uint256"
        }
      ],
      "stateMutability": "view",
      "type": "function"
    },
    {
      "stateMutability": "payable",
      "type": "receive"
    },
    {
      "inputs": [],
      "name": "mostrarInfo",
      "outputs": [
        {
          "components": [
            {
              "internalType": "address",
              "name": "_direccion",
              "type": "address"
            },
            {
              "internalType": "uint256",
              "name": "_index",
              "type": "uint256"
            },
            {
              "internalType": "address",
              "name": "_prestatario",
              "type": "address"
            },
            {
              "internalType": "enum PrestamoCursando.State",
              "name": "_state",
              "type": "uint8"
            },
            {
              "internalType": "uint256",
              "name": "_cantidadPrestada",
              "type": "uint256"
            },
            {
              "internalType": "uint256",
              "name": "_deudaRestante",
              "type": "uint256"
            },
            {
              "internalType": "uint256",
              "name": "_cuotaMensual",
              "type": "uint256"
            },
            {
              "internalType": "uint256",
              "name": "_cuotasRestantes",
              "type": "uint256"
            },
            {
              "internalType": "uint256",
              "name": "_penalizacionImpago",
              "type": "uint256"
            },
            {
              "internalType": "uint256",
              "name": "_ultimoCheckeo",
              "type": "uint256"
            }
          ],
          "internalType": "struct PrestamoCursando.InfoContrato",
          "name": "",
          "type": "tuple"
        }
      ],
      "stateMutability": "view",
      "type": "function"
    },
    {
      "inputs": [
        {
          "internalType": "uint256",
          "name": "_index",
          "type": "uint256"
        }
      ],
      "name": "setIndex",
      "outputs": [],
      "stateMutability": "nonpayable",
      "type": "function"
    },
    {
      "inputs": [],
      "name": "checkeoMensual",
      "outputs": [],
      "stateMutability": "nonpayable",
      "type": "function"
    },
    {
      "inputs": [],
      "name": "pagarMensualidad",
      "outputs": [],
      "stateMutability": "payable",
      "type": "function"
    },
    {
      "inputs": [
        {
          "internalType": "uint256",
          "name": "_amount",
          "type": "uint256"
        }
      ],
      "name": "transferirFondosAFactory",
      "outputs": [],
      "stateMutability": "nonpayable",
      "type": "function"
    }
  ],
  "bytecode": "0x608060405234801562000010575f80fd5b50604051620012e1380380620012e1833981810160405281019062000036919062000258565b865f819055506001805f6101000a81548160ff0219169083600281111562000063576200006262000306565b5b0217905550856001806101000a81548173ffffffffffffffffffffffffffffffffffffffff021916908373ffffffffffffffffffffffffffffffffffffffff1602179055508460025f6101000a81548173ffffffffffffffffffffffffffffffffffffffff021916908373ffffffffffffffffffffffffffffffffffffffff1602179055503360035f6101000a81548173ffffffffffffffffffffffffffffffffffffffff021916908373ffffffffffffffffffffffffffffffffffffffff16021790555083600481905550826005819055508160068190555080600881905550620001546200016e60201b60201c565b600781905550426009819055505050505050505062000397565b5f60016004540362000185576006549050620001a1565b6200019e600454600654620001a460201b90919060201c565b90505b90565b5f8183620001b3919062000360565b905092915050565b5f80fd5b5f819050919050565b620001d381620001bf565b8114620001de575f80fd5b50565b5f81519050620001f181620001c8565b92915050565b5f73ffffffffffffffffffffffffffffffffffffffff82169050919050565b5f6200022282620001f7565b9050919050565b620002348162000216565b81146200023f575f80fd5b50565b5f81519050620002528162000229565b92915050565b5f805f805f805f60e0888a031215620002765762000275620001bb565b5b5f620002858a828b01620001e1565b9750506020620002988a828b0162000242565b9650506040620002ab8a828b0162000242565b9550506060620002be8a828b01620001e1565b9450506080620002d18a828b01620001e1565b93505060a0620002e48a828b01620001e1565b92505060c0620002f78a828b01620001e1565b91505092959891949750929550565b7f4e487b71000000000000000000000000000000000000000000000000000000005f52602160045260245ffd5b7f4e487b71000000000000000000000000000000000000000000000000000000005f52601260045260245ffd5b5f6200036c82620001bf565b91506200037983620001bf565b9250826200038c576200038b62000333565b5b828204905092915050565b610f3c80620003a55f395ff3fe608060405260043610610058575f3560e01c80631d3eb5351461006b5780633cc2d80e1461009557806340a5737f146100bf5780635fbfcf3b146100e75780638c469289146100f1578063b5413ff81461010757610067565b366100675761006561012f565b005b5f80fd5b348015610076575f80fd5b5061007f610328565b60405161008c9190610a4f565b60405180910390f35b3480156100a0575f80fd5b506100a96103f9565b6040516100b69190610a78565b60405180910390f35b3480156100ca575f80fd5b506100e560048036038101906100e09190610abf565b6103fe565b005b6100ef61012f565b005b3480156100fc575f80fd5b50610105610496565b005b348015610112575f80fd5b5061012d60048036038101906101289190610abf565b610671565b005b60018054906101000a900473ffffffffffffffffffffffffffffffffffffffff1673ffffffffffffffffffffffffffffffffffffffff163373ffffffffffffffffffffffffffffffffffffffff16146101bd576040517f08c379a00000000000000000000000000000000000000000000000000000000081526004016101b490610b44565b60405180910390fd5b6007543414610201576040517f08c379a00000000000000000000000000000000000000000000000000000000081526004016101f890610bac565b60405180910390fd5b6001600281111561021557610214610912565b5b60015f9054906101000a900460ff16600281111561023657610235610912565b5b14610276576040517f08c379a000000000000000000000000000000000000000000000000000000000815260040161026d90610c14565b60405180910390fd5b5f60015f6101000a81548160ff0219169083600281111561029a57610299610912565b5b021790555060075460065f8282546102b29190610c5f565b9250508190555060045f8154809291906102cb90610c92565b91905055506001600454036102e9576102e26106d9565b6007819055505b5f6004540361031d57600260015f6101000a81548160ff0219169083600281111561031757610316610912565b5b02179055505b61032634610671565b565b610330610834565b5f6040518061014001604052803073ffffffffffffffffffffffffffffffffffffffff1681526020015f54815260200160018054906101000a900473ffffffffffffffffffffffffffffffffffffffff1673ffffffffffffffffffffffffffffffffffffffff16815260200160015f9054906101000a900460ff1660028111156103bd576103bc610912565b5b81526020016005548152602001600654815260200160075481526020016004548152602001600854815260200160095481525090508091505090565b600a81565b3373ffffffffffffffffffffffffffffffffffffffff1660035f9054906101000a900473ffffffffffffffffffffffffffffffffffffffff1673ffffffffffffffffffffffffffffffffffffffff161461048d576040517f08c379a000000000000000000000000000000000000000000000000000000000815260040161048490610d03565b60405180910390fd5b805f8190555050565b3373ffffffffffffffffffffffffffffffffffffffff1660025f9054906101000a900473ffffffffffffffffffffffffffffffffffffffff1673ffffffffffffffffffffffffffffffffffffffff1614610525576040517f08c379a000000000000000000000000000000000000000000000000000000000815260040161051c90610d6b565b60405180910390fd5b600a600954426105359190610c5f565b1015610576576040517f08c379a000000000000000000000000000000000000000000000000000000000815260040161056d90610dd3565b60405180910390fd5b6001600281111561058a57610589610912565b5b60015f9054906101000a900460ff1660028111156105ab576105aa610912565b5b036105bd576105b861070b565b610668565b5f60028111156105d0576105cf610912565b5b60015f9054906101000a900460ff1660028111156105f1576105f0610912565b5b03610624576001805f6101000a81548160ff0219169083600281111561061a57610619610912565b5b0217905550610667565b60028081111561063757610636610912565b5b60015f9054906101000a900460ff16600281111561065857610657610912565b5b036106665761066561075c565b5b5b5b42600981905550565b60035f9054906101000a900473ffffffffffffffffffffffffffffffffffffffff1673ffffffffffffffffffffffffffffffffffffffff166108fc8290811502906040515f60405180830381858888f193505050501580156106d5573d5f803e3d5ffd5b5050565b5f6001600454036106ee576006549050610708565b61070560045460065461080a90919063ffffffff16565b90505b90565b610735606461072760085460065461081f90919063ffffffff16565b61080a90919063ffffffff16565b60065f8282546107459190610df1565b925050819055506107546106d9565b600781905550565b60035f9054906101000a900473ffffffffffffffffffffffffffffffffffffffff1673ffffffffffffffffffffffffffffffffffffffff1663c350423f60018054906101000a900473ffffffffffffffffffffffffffffffffffffffff16305f546040518463ffffffff1660e01b81526004016107db93929190610e33565b5f604051808303815f87803b1580156107f2575f80fd5b505af1158015610804573d5f803e3d5ffd5b50505050565b5f81836108179190610e95565b905092915050565b5f818361082c9190610ec5565b905092915050565b6040518061014001604052805f73ffffffffffffffffffffffffffffffffffffffff1681526020015f81526020015f73ffffffffffffffffffffffffffffffffffffffff1681526020015f600281111561089157610890610912565b5b81526020015f81526020015f81526020015f81526020015f81526020015f81526020015f81525090565b5f73ffffffffffffffffffffffffffffffffffffffff82169050919050565b5f6108e4826108bb565b9050919050565b6108f4816108da565b82525050565b5f819050919050565b61090c816108fa565b82525050565b7f4e487b71000000000000000000000000000000000000000000000000000000005f52602160045260245ffd5b600381106109505761094f610912565b5b50565b5f8190506109608261093f565b919050565b5f61096f82610953565b9050919050565b61097f81610965565b82525050565b61014082015f82015161099a5f8501826108eb565b5060208201516109ad6020850182610903565b5060408201516109c060408501826108eb565b5060608201516109d36060850182610976565b5060808201516109e66080850182610903565b5060a08201516109f960a0850182610903565b5060c0820151610a0c60c0850182610903565b5060e0820151610a1f60e0850182610903565b50610100820151610a34610100850182610903565b50610120820151610a49610120850182610903565b50505050565b5f61014082019050610a635f830184610985565b92915050565b610a72816108fa565b82525050565b5f602082019050610a8b5f830184610a69565b92915050565b5f80fd5b610a9e816108fa565b8114610aa8575f80fd5b50565b5f81359050610ab981610a95565b92915050565b5f60208284031215610ad457610ad3610a91565b5b5f610ae184828501610aab565b91505092915050565b5f82825260208201905092915050565b7f4f6e6c7920626f72726f776572000000000000000000000000000000000000005f82015250565b5f610b2e600d83610aea565b9150610b3982610afa565b602082019050919050565b5f6020820190508181035f830152610b5b81610b22565b9050919050565b7f53656e6420657861637420646562742076616c756500000000000000000000005f82015250565b5f610b96601583610aea565b9150610ba182610b62565b602082019050919050565b5f6020820190508181035f830152610bc381610b8a565b9050919050565b7f5061796d656e7420706572696f64206e6f74206f70656e0000000000000000005f82015250565b5f610bfe601783610aea565b9150610c0982610bca565b602082019050919050565b5f6020820190508181035f830152610c2b81610bf2565b9050919050565b7f4e487b71000000000000000000000000000000000000000000000000000000005f52601160045260245ffd5b5f610c69826108fa565b9150610c74836108fa565b9250828203905081811115610c8c57610c8b610c32565b5b92915050565b5f610c9c826108fa565b91505f8203610cae57610cad610c32565b5b600182039050919050565b7f4f6e6c7920636f6e747261637420466163746f727900000000000000000000005f82015250565b5f610ced601583610aea565b9150610cf882610cb9565b602082019050919050565b5f6020820190508181035f830152610d1a81610ce1565b9050919050565b7f4f6e6c792066696e616e6369616c20656e7469747900000000000000000000005f82015250565b5f610d55601583610aea565b9150610d6082610d21565b602082019050919050565b5f6020820190508181035f830152610d8281610d49565b9050919050565b7f446561646c696e6520686173206e6f74207965742065787069726564000000005f82015250565b5f610dbd601c83610aea565b9150610dc882610d89565b602082019050919050565b5f6020820190508181035f830152610dea81610db1565b9050919050565b5f610dfb826108fa565b9150610e06836108fa565b9250828201905080821115610e1e57610e1d610c32565b5b92915050565b610e2d816108da565b82525050565b5f606082019050610e465f830186610e24565b610e536020830185610e24565b610e606040830184610a69565b949350505050565b7f4e487b71000000000000000000000000000000000000000000000000000000005f52601260045260245ffd5b5f610e9f826108fa565b9150610eaa836108fa565b925082610eba57610eb9610e68565b5b828204905092915050565b5f610ecf826108fa565b9150610eda836108fa565b9250828202610ee8816108fa565b91508282048414831517610eff57610efe610c32565b5b509291505056fea264697066735822122019d34fc97f1c66726cf9efe13ac828c30415ac8ba4c61659f4d6950e769b156d64736f6c63430008140033",
  "immutableReferences": {},
  "source": "// SPDX-License-Identifier: GPL-3.0\r\npragma solidity >=0.8.0 <0.9.0;\r\nimport \"@openzeppelin/contracts/utils/math/SafeMath.sol\";\r\n//SafeMath.sol no aparece con npm install, importado manualmente \r\ncontract PrestamosFactory {\r\n\r\n    using SafeMath for uint256;\r\n\r\n    address payable private owner;\r\n    //Posibles prestamos a contratar\r\n    TipoContrato[] tiposContrato;\r\n    \r\n    mapping(address => PrestamoCursando[])  prestamosCursando;\r\n    address[] clientes;\r\n\r\n    struct TipoContrato {\r\n        uint256 index;\r\n        uint256 porcentajeInteres; \r\n        uint256 cantidad; \r\n        uint256 deudaTotal;\r\n        uint256 cuotas;\r\n        uint256 penalizacionImpago;\r\n    }\r\n    \r\n    event PrestamoDefinido(TipoContrato tipoContrato);\r\n    event NuevoPrestamoCursando(address indexed direccionContrato, address indexed prestatario);\r\n    event FondosRecibidos(address direccion,uint256 cantidad);\r\n\r\n    modifier onlyOwner() {\r\n        require(owner == msg.sender,\"Only Owner\");\r\n         _;\r\n    }\r\n    \r\n    constructor(){\r\n        owner = payable(msg.sender);\r\n    }\r\n\r\n    receive() external payable {\r\n        invertir();\r\n    }\r\n\r\n    function invertir() public payable {\r\n        emit FondosRecibidos(msg.sender, msg.value);\r\n    }\r\n\r\n    function getBalance() public view onlyOwner returns(uint256) {\r\n    \r\n        return address(this).balance;\r\n    }\r\n    function getClientes() public view onlyOwner  returns(address[] memory) {\r\n        return clientes;\r\n\r\n    }\r\n\r\n    function recolectarFondos(uint256 amount) public  onlyOwner {\r\n        require(address(this).balance >= amount);\r\n        owner.transfer(amount);\r\n\r\n    }\r\n\r\n    function verTiposContrato() public view returns (TipoContrato[] memory) {\r\n        return tiposContrato;\r\n    }\r\n\r\n\r\n    function verContratos(address _prestatario) public view returns (PrestamoCursando[] memory){\r\n        require((msg.sender == owner)||(msg.sender == _prestatario), \"Top Secret\");\r\n        return (prestamosCursando[_prestatario]);\r\n    }\r\n\r\n\r\n    function definirPrestamo(uint8 _porcentajeInteres, uint256 _cantidad, uint8 _cuotas, uint8 _penalizacionImpago) public onlyOwner {\r\n\r\n        require(_penalizacionImpago >= 0 && _penalizacionImpago <= 100, \"La penalizacion tiene que ser un porcentaje\");\r\n        require(_porcentajeInteres >= 0 && _porcentajeInteres <= 100, \"El interes tiene que ser un porcentaje\");\r\n\r\n\r\n        uint256 _deudaTotal = _cantidad + _cantidad.mul(_porcentajeInteres).div(100);\r\n\r\n        TipoContrato memory nuevoPrestamo = TipoContrato({\r\n            index: 0 ,\r\n            porcentajeInteres: _porcentajeInteres,\r\n            cantidad: _cantidad,\r\n            deudaTotal: _deudaTotal,\r\n            cuotas: _cuotas,\r\n            penalizacionImpago: _penalizacionImpago\r\n        });\r\n\r\n        tiposContrato.push(nuevoPrestamo);\r\n        //Guardo el index dentro del Objeto prstamo para mayor facilidad de acceso \r\n        tiposContrato[tiposContrato.length - 1].index = tiposContrato.length-1;\r\n        emit PrestamoDefinido(nuevoPrestamo);\r\n    \r\n    }\r\n\r\n\r\n\r\n   \r\n    function contratarPrestamo(address payable _prestatario, uint8 indexTipoContrato) public {\r\n\r\n        require(msg.sender == _prestatario, \"No se puede contratar en nombre de otros\");\r\n\r\n        TipoContrato memory tipoPrestamo = tiposContrato[indexTipoContrato];\r\n        require(address(this).balance >= tipoPrestamo.cantidad,\"Prestamo no disponible\");\r\n\r\n        //Compruebo si la cuenta tiene otro conrtrato contratado\r\n        if(prestamosCursando[_prestatario].length == 0){\r\n            clientes.push(_prestatario);\r\n        }\r\n        //Guardo index para faciltar acceso\r\n        uint256 _indexNuevoPrestamo = prestamosCursando[_prestatario].length;\r\n        // Genero un nuevo contrato Prestamo asociado a la direccin msg.sender\r\n        PrestamoCursando newPrestamo = new PrestamoCursando(_indexNuevoPrestamo, _prestatario, owner, tipoPrestamo.cuotas, tipoPrestamo.cantidad,\r\n                                                            tipoPrestamo.deudaTotal, tipoPrestamo.penalizacionImpago);\r\n\r\n        //Enviar dinero a usuario\r\n        emit NuevoPrestamoCursando(address(newPrestamo), _prestatario);                                                \r\n        prestamosCursando[_prestatario].push(newPrestamo);\r\n        _prestatario.transfer(tipoPrestamo.cantidad);\r\n\r\n    }\r\n\r\n    function  eliminarPrestamoFinalizado(address user, address _finalizado, uint index) external {\r\n        require(msg.sender == _finalizado, \"Los contratos se autoeliminan una vez finalizados\");\r\n        //Se copia el ultimo elemento del array y se le cambia el ndice\r\n        prestamosCursando[user][index] = prestamosCursando[user][prestamosCursando[user].length - 1];\r\n        prestamosCursando[user][index].setIndex(index);\r\n        //Se elimina el elemento copiado\r\n        prestamosCursando[user].pop();\r\n\r\n        //En caso de que el cliente deje de tener contratos con nostros le eliminamos de la lista de clientes\r\n        if( prestamosCursando[user].length == 0){\r\n            for(uint i = 0 ; i < clientes.length; i ++ ) {\r\n                if (clientes[i] == user) {\r\n                    clientes[i] = clientes[clientes.length - 1];\r\n                    break;\r\n                }\r\n            }\r\n            clientes.pop();\r\n        }\r\n\r\n    }\r\n    \r\n    }\r\n\r\ncontract PrestamoCursando {\r\n\r\n    using SafeMath for uint256;\r\n\r\n    uint index;\r\n    enum State { PAGADO, ABIERTO, FINALIZADO }\r\n    State state;\r\n    address prestatario;\r\n    address entidadFinanciera;\r\n    address payable prestamosFactory;\r\n    uint256 cuotasRestantes;\r\n    uint256 cantidadPrestada;\r\n    uint256 deudaRestante;\r\n    uint256 cuotaMensual;\r\n    uint256 penalizacion;\r\n    uint256 ultimoCheckeo;\r\n\r\n    struct InfoContrato {\r\n        address _direccion;\r\n        uint256 _index;\r\n        address _prestatario;\r\n        State _state;\r\n        uint256 _cantidadPrestada; \r\n        uint256 _deudaRestante;\r\n        uint256 _cuotaMensual;\r\n        uint256 _cuotasRestantes;\r\n        uint256 _penalizacionImpago;\r\n        uint256 _ultimoCheckeo;\r\n    }\r\n\r\n    //2629800 = 1 MES;\r\n    uint256 public constant PLAZO = 10;\r\n\r\n    modifier onlyFinancialEntity() {\r\n        require(entidadFinanciera == msg.sender,\"Only financial entity\");\r\n         _;\r\n    }\r\n    \r\n    modifier onlyContractFactory() {\r\n        require(prestamosFactory == msg.sender,\"Only contract Factory\");\r\n         _;\r\n    }\r\n\r\n    modifier hasBeenOneMonth() {\r\n        require(block.timestamp - ultimoCheckeo >= PLAZO, \"Deadline has not yet expired\" );\r\n        _;\r\n    }\r\n\r\n    constructor(uint256 _index, address _prestatario, address _entidad, uint256 _cuotasRestantes, uint256 _cantidad, uint256 _deudaTotal, uint256 _penalizacion){\r\n        index = _index;\r\n        state = State.ABIERTO;\r\n        prestatario = _prestatario;\r\n        entidadFinanciera = _entidad;\r\n        prestamosFactory = payable(msg.sender);\r\n        cuotasRestantes = _cuotasRestantes;\r\n        cantidadPrestada = _cantidad;\r\n        deudaRestante = _deudaTotal;\r\n        penalizacion = _penalizacion;\r\n        cuotaMensual = calculoCuotaMensual();\r\n        ultimoCheckeo = block.timestamp;\r\n    }\r\n\r\n    function mostrarInfo() external view returns (InfoContrato memory){\r\n        InfoContrato memory infoContrato = InfoContrato({\r\n            _direccion: address(this),\r\n            _index: index,\r\n            _prestatario: prestatario,\r\n            _state: state,\r\n            _cantidadPrestada: cantidadPrestada,\r\n            _deudaRestante: deudaRestante,\r\n            _cuotaMensual: cuotaMensual,\r\n            _cuotasRestantes: cuotasRestantes,\r\n            _penalizacionImpago: penalizacion,\r\n            _ultimoCheckeo: ultimoCheckeo\r\n        });\r\n    \r\n        return infoContrato;\r\n    }\r\n\r\n\r\n    function setIndex(uint _index) external onlyContractFactory {\r\n        index = _index;\r\n    }\r\n\r\n    function calculoCuotaMensual() private view returns (uint256){\r\n        //Debido a problemas con el tratamiento de decimales de solidity puede resultar el caso que\r\n        // deudarestante/cuotasrestantes no de un numero entero\r\n        //Esto implica que quede deuda despues de pagar todas las cuotas por lo que este resto se aade a la cuota final\r\n        if(cuotasRestantes == 1) {\r\n            return  deudaRestante;\r\n            }\r\n        else {\r\n            return deudaRestante.div(cuotasRestantes);\r\n        }\r\n       \r\n    }\r\n\r\n    function checkeoMensual() onlyFinancialEntity hasBeenOneMonth public {\r\n        \r\n        if(state == State.ABIERTO){\r\n            penalizarPrestamo();\r\n        }\r\n        else if(state == State.PAGADO){\r\n            state = State.ABIERTO;\r\n        }\r\n        else if (state == State.FINALIZADO){\r\n            eliminarContratoFinalizado();\r\n        }\r\n\r\n        ultimoCheckeo = block.timestamp;\r\n  \r\n    }\r\n\r\n    function eliminarContratoFinalizado() private {\r\n        PrestamosFactory(prestamosFactory).eliminarPrestamoFinalizado(prestatario, address(this), index); \r\n    }\r\n\r\n    //Numero de cuotas se mantiene\r\n    function penalizarPrestamo() private {\r\n        deudaRestante += deudaRestante.mul(penalizacion).div(100); \r\n        cuotaMensual = calculoCuotaMensual();\r\n    }\r\n\r\n    receive() external payable {\r\n        pagarMensualidad();\r\n    }\r\n\r\n    function pagarMensualidad() payable public {\r\n        require(msg.sender == prestatario, \"Only borrower\");\r\n        require(msg.value == cuotaMensual, \"Send exact debt value\");\r\n        require(state == State.ABIERTO, \"Payment period not open\");\r\n       \r\n        state = State.PAGADO;\r\n        deudaRestante -= cuotaMensual;\r\n        cuotasRestantes--;\r\n\r\n       \r\n        if(cuotasRestantes == 1){\r\n            cuotaMensual = calculoCuotaMensual();\r\n         }\r\n\r\n        if(cuotasRestantes == 0){\r\n         state = State.FINALIZADO;\r\n        }\r\n        transferirFondosAFactory(msg.value);\r\n        \r\n    }\r\n\r\n    //Por seguridad se pone a public para evitar fondos bloqueados en este contrato.\r\n    function transferirFondosAFactory(uint256 _amount) public {\r\n        prestamosFactory.transfer(_amount);\r\n    }\r\n    \r\n\r\n\r\n}",
  "sourcePath": "C:\\Users\\akila\\Desktop\\PRESTAMOS FACTORY\\myApp\\truffle\\contracts\\PRESTAMOS_FACTORY.sol",
  "compiler": {
    "name": "solc",
    "version": "0.8.20+commit.a1b79de6.Emscripten.clang"
  },
  "schemaVersion": "3.4.16",
  "updatedAt": "2023-12-10T10:26:59.179Z",
  "devdoc": {
    "kind": "dev",
    "methods": {},
    "version": 1
  },
  "userdoc": {
    "kind": "user",
    "methods": {},
    "version": 1
  }
}